{
  "contractName": "CryptoStackMain",
  "abi": [
    {
      "inputs": [],
      "stateMutability": "nonpayable",
      "type": "constructor"
    },
    {
      "inputs": [],
      "name": "answerCount",
      "outputs": [
        {
          "internalType": "uint256",
          "name": "",
          "type": "uint256"
        }
      ],
      "stateMutability": "view",
      "type": "function"
    },
    {
      "inputs": [
        {
          "internalType": "uint256",
          "name": "",
          "type": "uint256"
        }
      ],
      "name": "answers",
      "outputs": [
        {
          "internalType": "uint256",
          "name": "id",
          "type": "uint256"
        },
        {
          "internalType": "uint256",
          "name": "questionId",
          "type": "uint256"
        },
        {
          "internalType": "address",
          "name": "replierAddress",
          "type": "address"
        },
        {
          "internalType": "string",
          "name": "answerString",
          "type": "string"
        }
      ],
      "stateMutability": "view",
      "type": "function"
    },
    {
      "inputs": [],
      "name": "questionCount",
      "outputs": [
        {
          "internalType": "uint256",
          "name": "",
          "type": "uint256"
        }
      ],
      "stateMutability": "view",
      "type": "function"
    },
    {
      "inputs": [
        {
          "internalType": "uint256",
          "name": "",
          "type": "uint256"
        }
      ],
      "name": "questions",
      "outputs": [
        {
          "internalType": "uint256",
          "name": "id",
          "type": "uint256"
        },
        {
          "internalType": "address",
          "name": "questionaireAddress",
          "type": "address"
        },
        {
          "internalType": "bool",
          "name": "isAnswer",
          "type": "bool"
        },
        {
          "internalType": "string",
          "name": "questionString",
          "type": "string"
        }
      ],
      "stateMutability": "view",
      "type": "function"
    },
    {
      "inputs": [],
      "name": "userCount",
      "outputs": [
        {
          "internalType": "uint256",
          "name": "",
          "type": "uint256"
        }
      ],
      "stateMutability": "view",
      "type": "function"
    },
    {
      "inputs": [
        {
          "internalType": "uint256",
          "name": "",
          "type": "uint256"
        }
      ],
      "name": "users",
      "outputs": [
        {
          "internalType": "uint256",
          "name": "userPoints",
          "type": "uint256"
        },
        {
          "internalType": "address",
          "name": "userAddress",
          "type": "address"
        },
        {
          "internalType": "string",
          "name": "userName",
          "type": "string"
        }
      ],
      "stateMutability": "view",
      "type": "function"
    },
    {
      "inputs": [
        {
          "internalType": "string",
          "name": "_userName",
          "type": "string"
        }
      ],
      "name": "registerNewUser",
      "outputs": [],
      "stateMutability": "nonpayable",
      "type": "function"
    },
    {
      "inputs": [
        {
          "internalType": "string",
          "name": "_questionString",
          "type": "string"
        }
      ],
      "name": "createNewQuestion",
      "outputs": [],
      "stateMutability": "nonpayable",
      "type": "function"
    }
  ],
  "bytecode": "0x608060405234801561001057600080fd5b50610c35806100206000396000f3fe608060405234801561001057600080fd5b50600436106100885760003560e01c806317599cc51161005b57806317599cc51461010357806331b1b97814610136578063365b98b214610169578063995ac4fd1461019b57610088565b806307973ccf1461008d5780630aab0b54146100ab5780630bed0502146100c75780631468aa2c146100e5575b600080fd5b6100956101b7565b6040516100a291906108b1565b60405180910390f35b6100c560048036038101906100c091906107e1565b6101bd565b005b6100cf6102ef565b6040516100dc91906108b1565b60405180910390f35b6100ed6102f5565b6040516100fa91906108b1565b60405180910390f35b61011d60048036038101906101189190610822565b6102fb565b60405161012d9493929190610956565b60405180910390f35b610150600480360381019061014b9190610822565b6103e3565b60405161016094939291906108cc565b60405180910390f35b610183600480360381019061017e9190610822565b6104d8565b60405161019293929190610918565b60405180910390f35b6101b560048036038101906101b091906107e1565b6105ba565b005b60005481565b604051806080016040528060015481526020013373ffffffffffffffffffffffffffffffffffffffff16815260200160001515815260200182815250600460015481548110610235577f4e487b7100000000000000000000000000000000000000000000000000000000600052603260045260246000fd5b90600052602060002090600302016000820151816000015560208201518160010160006101000a81548173ffffffffffffffffffffffffffffffffffffffff021916908373ffffffffffffffffffffffffffffffffffffffff16021790555060408201518160010160146101000a81548160ff02191690831515021790555060608201518160020190805190602001906102d09291906106c1565b50905050600160008154809291906102e790610b01565b919050555050565b60025481565b60015481565b6005818154811061030b57600080fd5b90600052602060002090600402016000915090508060000154908060010154908060020160009054906101000a900473ffffffffffffffffffffffffffffffffffffffff169080600301805461036090610a9e565b80601f016020809104026020016040519081016040528092919081815260200182805461038c90610a9e565b80156103d95780601f106103ae576101008083540402835291602001916103d9565b820191906000526020600020905b8154815290600101906020018083116103bc57829003601f168201915b5050505050905084565b600481815481106103f357600080fd5b90600052602060002090600302016000915090508060000154908060010160009054906101000a900473ffffffffffffffffffffffffffffffffffffffff16908060010160149054906101000a900460ff169080600201805461045590610a9e565b80601f016020809104026020016040519081016040528092919081815260200182805461048190610a9e565b80156104ce5780601f106104a3576101008083540402835291602001916104ce565b820191906000526020600020905b8154815290600101906020018083116104b157829003601f168201915b5050505050905084565b600381815481106104e857600080fd5b90600052602060002090600302016000915090508060000154908060010160009054906101000a900473ffffffffffffffffffffffffffffffffffffffff169080600201805461053790610a9e565b80601f016020809104026020016040519081016040528092919081815260200182805461056390610a9e565b80156105b05780601f10610585576101008083540402835291602001916105b0565b820191906000526020600020905b81548152906001019060200180831161059357829003601f168201915b5050505050905083565b6040518060600160405280600081526020013373ffffffffffffffffffffffffffffffffffffffff16815260200182815250600360005481548110610628577f4e487b7100000000000000000000000000000000000000000000000000000000600052603260045260246000fd5b90600052602060002090600302016000820151816000015560208201518160010160006101000a81548173ffffffffffffffffffffffffffffffffffffffff021916908373ffffffffffffffffffffffffffffffffffffffff16021790555060408201518160020190805190602001906106a39291906106c1565b509050506000808154809291906106b990610b01565b919050555050565b8280546106cd90610a9e565b90600052602060002090601f0160209004810192826106ef5760008555610736565b82601f1061070857805160ff1916838001178555610736565b82800160010185558215610736579182015b8281111561073557825182559160200191906001019061071a565b5b5090506107439190610747565b5090565b5b80821115610760576000816000905550600101610748565b5090565b6000610777610772846109c7565b6109a2565b90508281526020810184848401111561078f57600080fd5b61079a848285610a5c565b509392505050565b600082601f8301126107b357600080fd5b81356107c3848260208601610764565b91505092915050565b6000813590506107db81610be8565b92915050565b6000602082840312156107f357600080fd5b600082013567ffffffffffffffff81111561080d57600080fd5b610819848285016107a2565b91505092915050565b60006020828403121561083457600080fd5b6000610842848285016107cc565b91505092915050565b61085481610a14565b82525050565b61086381610a26565b82525050565b6000610874826109f8565b61087e8185610a03565b935061088e818560208601610a6b565b61089781610bd7565b840191505092915050565b6108ab81610a52565b82525050565b60006020820190506108c660008301846108a2565b92915050565b60006080820190506108e160008301876108a2565b6108ee602083018661084b565b6108fb604083018561085a565b818103606083015261090d8184610869565b905095945050505050565b600060608201905061092d60008301866108a2565b61093a602083018561084b565b818103604083015261094c8184610869565b9050949350505050565b600060808201905061096b60008301876108a2565b61097860208301866108a2565b610985604083018561084b565b81810360608301526109978184610869565b905095945050505050565b60006109ac6109bd565b90506109b88282610ad0565b919050565b6000604051905090565b600067ffffffffffffffff8211156109e2576109e1610ba8565b5b6109eb82610bd7565b9050602081019050919050565b600081519050919050565b600082825260208201905092915050565b6000610a1f82610a32565b9050919050565b60008115159050919050565b600073ffffffffffffffffffffffffffffffffffffffff82169050919050565b6000819050919050565b82818337600083830152505050565b60005b83811015610a89578082015181840152602081019050610a6e565b83811115610a98576000848401525b50505050565b60006002820490506001821680610ab657607f821691505b60208210811415610aca57610ac9610b79565b5b50919050565b610ad982610bd7565b810181811067ffffffffffffffff82111715610af857610af7610ba8565b5b80604052505050565b6000610b0c82610a52565b91507fffffffffffffffffffffffffffffffffffffffffffffffffffffffffffffffff821415610b3f57610b3e610b4a565b5b600182019050919050565b7f4e487b7100000000000000000000000000000000000000000000000000000000600052601160045260246000fd5b7f4e487b7100000000000000000000000000000000000000000000000000000000600052602260045260246000fd5b7f4e487b7100000000000000000000000000000000000000000000000000000000600052604160045260246000fd5b6000601f19601f8301169050919050565b610bf181610a52565b8114610bfc57600080fd5b5056fea2646970667358221220f630e7c24617b7446bd8f41ce2fcf09c4c94328d991bca709cf9fcea407db5f364736f6c63430008020033",
  "immutableReferences": {},
  "source": "// SPDX-License-Identifier: MIT\r\npragma solidity >=0.4.22 <0.9.0;\r\n\r\ncontract CryptoStackMain {\r\n  constructor() {\r\n    \r\n  }\r\n  struct User{\r\n    uint userPoints;\r\n    address userAddress;\r\n    string userName;\r\n\r\n  }\r\n  struct Question{\r\n    uint id;\r\n    address questionaireAddress;\r\n    bool isAnswer;\r\n    string questionString;\r\n  }\r\n  struct Answer{\r\n    uint id;\r\n    uint questionId;\r\n    address replierAddress;\r\n    string answerString;\r\n  }\r\n  uint public userCount;\r\n  uint public questionCount;\r\n  uint public answerCount;\r\n  User[] public users;\r\n  Question[] public questions;\r\n  Answer[] public answers;\r\n\r\n  function registerNewUser(string memory _userName ) external {\r\n     users[userCount] = User(0, msg.sender, _userName );\r\n      userCount++;\r\n  }\r\n\r\n  function createNewQuestion(string memory _questionString) external {\r\n      questions[questionCount] = Question(questionCount, msg.sender, false , _questionString);\r\n      questionCount++;\r\n  }\r\n}\r\n",
  "sourcePath": "D:/Hackathons/Devfolio online/ByteSynergy/project/CryptoStack/truffle/contracts/CryptoStackMain.sol",
  "compiler": {
    "name": "solc",
    "version": "0.8.2+commit.661d1103.Emscripten.clang"
  },
  "schemaVersion": "3.4.1",
  "updatedAt": "2022-02-12T09:15:29.650Z",
  "devdoc": {
    "kind": "dev",
    "methods": {},
    "version": 1
  },
  "userdoc": {
    "kind": "user",
    "methods": {},
    "version": 1
  }
}