{
  "contractName": "CryptoStakeRewardNFT",
  "abi": [
    {
      "inputs": [],
      "stateMutability": "nonpayable",
      "type": "constructor"
    },
    {
      "anonymous": false,
      "inputs": [
        {
          "indexed": true,
          "internalType": "address",
          "name": "owner",
          "type": "address"
        },
        {
          "indexed": true,
          "internalType": "address",
          "name": "approved",
          "type": "address"
        },
        {
          "indexed": true,
          "internalType": "uint256",
          "name": "tokenId",
          "type": "uint256"
        }
      ],
      "name": "Approval",
      "type": "event"
    },
    {
      "anonymous": false,
      "inputs": [
        {
          "indexed": true,
          "internalType": "address",
          "name": "owner",
          "type": "address"
        },
        {
          "indexed": true,
          "internalType": "address",
          "name": "operator",
          "type": "address"
        },
        {
          "indexed": false,
          "internalType": "bool",
          "name": "approved",
          "type": "bool"
        }
      ],
      "name": "ApprovalForAll",
      "type": "event"
    },
    {
      "anonymous": false,
      "inputs": [
        {
          "indexed": true,
          "internalType": "bytes32",
          "name": "role",
          "type": "bytes32"
        },
        {
          "indexed": true,
          "internalType": "bytes32",
          "name": "previousAdminRole",
          "type": "bytes32"
        },
        {
          "indexed": true,
          "internalType": "bytes32",
          "name": "newAdminRole",
          "type": "bytes32"
        }
      ],
      "name": "RoleAdminChanged",
      "type": "event"
    },
    {
      "anonymous": false,
      "inputs": [
        {
          "indexed": true,
          "internalType": "bytes32",
          "name": "role",
          "type": "bytes32"
        },
        {
          "indexed": true,
          "internalType": "address",
          "name": "account",
          "type": "address"
        },
        {
          "indexed": true,
          "internalType": "address",
          "name": "sender",
          "type": "address"
        }
      ],
      "name": "RoleGranted",
      "type": "event"
    },
    {
      "anonymous": false,
      "inputs": [
        {
          "indexed": true,
          "internalType": "bytes32",
          "name": "role",
          "type": "bytes32"
        },
        {
          "indexed": true,
          "internalType": "address",
          "name": "account",
          "type": "address"
        },
        {
          "indexed": true,
          "internalType": "address",
          "name": "sender",
          "type": "address"
        }
      ],
      "name": "RoleRevoked",
      "type": "event"
    },
    {
      "anonymous": false,
      "inputs": [
        {
          "indexed": true,
          "internalType": "address",
          "name": "from",
          "type": "address"
        },
        {
          "indexed": true,
          "internalType": "address",
          "name": "to",
          "type": "address"
        },
        {
          "indexed": true,
          "internalType": "uint256",
          "name": "tokenId",
          "type": "uint256"
        }
      ],
      "name": "Transfer",
      "type": "event"
    },
    {
      "inputs": [],
      "name": "DEFAULT_ADMIN_ROLE",
      "outputs": [
        {
          "internalType": "bytes32",
          "name": "",
          "type": "bytes32"
        }
      ],
      "stateMutability": "view",
      "type": "function"
    },
    {
      "inputs": [],
      "name": "MINTER_ROLE",
      "outputs": [
        {
          "internalType": "bytes32",
          "name": "",
          "type": "bytes32"
        }
      ],
      "stateMutability": "view",
      "type": "function"
    },
    {
      "inputs": [
        {
          "internalType": "address",
          "name": "to",
          "type": "address"
        },
        {
          "internalType": "uint256",
          "name": "tokenId",
          "type": "uint256"
        }
      ],
      "name": "approve",
      "outputs": [],
      "stateMutability": "nonpayable",
      "type": "function"
    },
    {
      "inputs": [
        {
          "internalType": "address",
          "name": "owner",
          "type": "address"
        }
      ],
      "name": "balanceOf",
      "outputs": [
        {
          "internalType": "uint256",
          "name": "",
          "type": "uint256"
        }
      ],
      "stateMutability": "view",
      "type": "function"
    },
    {
      "inputs": [
        {
          "internalType": "uint256",
          "name": "tokenId",
          "type": "uint256"
        }
      ],
      "name": "getApproved",
      "outputs": [
        {
          "internalType": "address",
          "name": "",
          "type": "address"
        }
      ],
      "stateMutability": "view",
      "type": "function"
    },
    {
      "inputs": [
        {
          "internalType": "bytes32",
          "name": "role",
          "type": "bytes32"
        }
      ],
      "name": "getRoleAdmin",
      "outputs": [
        {
          "internalType": "bytes32",
          "name": "",
          "type": "bytes32"
        }
      ],
      "stateMutability": "view",
      "type": "function"
    },
    {
      "inputs": [
        {
          "internalType": "bytes32",
          "name": "role",
          "type": "bytes32"
        },
        {
          "internalType": "address",
          "name": "account",
          "type": "address"
        }
      ],
      "name": "grantRole",
      "outputs": [],
      "stateMutability": "nonpayable",
      "type": "function"
    },
    {
      "inputs": [
        {
          "internalType": "bytes32",
          "name": "role",
          "type": "bytes32"
        },
        {
          "internalType": "address",
          "name": "account",
          "type": "address"
        }
      ],
      "name": "hasRole",
      "outputs": [
        {
          "internalType": "bool",
          "name": "",
          "type": "bool"
        }
      ],
      "stateMutability": "view",
      "type": "function"
    },
    {
      "inputs": [
        {
          "internalType": "address",
          "name": "owner",
          "type": "address"
        },
        {
          "internalType": "address",
          "name": "operator",
          "type": "address"
        }
      ],
      "name": "isApprovedForAll",
      "outputs": [
        {
          "internalType": "bool",
          "name": "",
          "type": "bool"
        }
      ],
      "stateMutability": "view",
      "type": "function"
    },
    {
      "inputs": [],
      "name": "name",
      "outputs": [
        {
          "internalType": "string",
          "name": "",
          "type": "string"
        }
      ],
      "stateMutability": "view",
      "type": "function"
    },
    {
      "inputs": [
        {
          "internalType": "uint256",
          "name": "tokenId",
          "type": "uint256"
        }
      ],
      "name": "ownerOf",
      "outputs": [
        {
          "internalType": "address",
          "name": "",
          "type": "address"
        }
      ],
      "stateMutability": "view",
      "type": "function"
    },
    {
      "inputs": [
        {
          "internalType": "bytes32",
          "name": "role",
          "type": "bytes32"
        },
        {
          "internalType": "address",
          "name": "account",
          "type": "address"
        }
      ],
      "name": "renounceRole",
      "outputs": [],
      "stateMutability": "nonpayable",
      "type": "function"
    },
    {
      "inputs": [
        {
          "internalType": "bytes32",
          "name": "role",
          "type": "bytes32"
        },
        {
          "internalType": "address",
          "name": "account",
          "type": "address"
        }
      ],
      "name": "revokeRole",
      "outputs": [],
      "stateMutability": "nonpayable",
      "type": "function"
    },
    {
      "inputs": [
        {
          "internalType": "address",
          "name": "from",
          "type": "address"
        },
        {
          "internalType": "address",
          "name": "to",
          "type": "address"
        },
        {
          "internalType": "uint256",
          "name": "tokenId",
          "type": "uint256"
        }
      ],
      "name": "safeTransferFrom",
      "outputs": [],
      "stateMutability": "nonpayable",
      "type": "function"
    },
    {
      "inputs": [
        {
          "internalType": "address",
          "name": "from",
          "type": "address"
        },
        {
          "internalType": "address",
          "name": "to",
          "type": "address"
        },
        {
          "internalType": "uint256",
          "name": "tokenId",
          "type": "uint256"
        },
        {
          "internalType": "bytes",
          "name": "_data",
          "type": "bytes"
        }
      ],
      "name": "safeTransferFrom",
      "outputs": [],
      "stateMutability": "nonpayable",
      "type": "function"
    },
    {
      "inputs": [
        {
          "internalType": "address",
          "name": "operator",
          "type": "address"
        },
        {
          "internalType": "bool",
          "name": "approved",
          "type": "bool"
        }
      ],
      "name": "setApprovalForAll",
      "outputs": [],
      "stateMutability": "nonpayable",
      "type": "function"
    },
    {
      "inputs": [],
      "name": "symbol",
      "outputs": [
        {
          "internalType": "string",
          "name": "",
          "type": "string"
        }
      ],
      "stateMutability": "view",
      "type": "function"
    },
    {
      "inputs": [
        {
          "internalType": "address",
          "name": "from",
          "type": "address"
        },
        {
          "internalType": "address",
          "name": "to",
          "type": "address"
        },
        {
          "internalType": "uint256",
          "name": "tokenId",
          "type": "uint256"
        }
      ],
      "name": "transferFrom",
      "outputs": [],
      "stateMutability": "nonpayable",
      "type": "function"
    },
    {
      "inputs": [
        {
          "internalType": "address",
          "name": "to",
          "type": "address"
        },
        {
          "internalType": "uint256",
          "name": "tokenId",
          "type": "uint256"
        },
        {
          "internalType": "string",
          "name": "uri",
          "type": "string"
        }
      ],
      "name": "safeMint",
      "outputs": [],
      "stateMutability": "nonpayable",
      "type": "function"
    },
    {
      "inputs": [
        {
          "internalType": "uint256",
          "name": "tokenId",
          "type": "uint256"
        }
      ],
      "name": "tokenURI",
      "outputs": [
        {
          "internalType": "string",
          "name": "",
          "type": "string"
        }
      ],
      "stateMutability": "view",
      "type": "function"
    },
    {
      "inputs": [
        {
          "internalType": "bytes4",
          "name": "interfaceId",
          "type": "bytes4"
        }
      ],
      "name": "supportsInterface",
      "outputs": [
        {
          "internalType": "bool",
          "name": "",
          "type": "bool"
        }
      ],
      "stateMutability": "view",
      "type": "function"
    }
  ],
  "bytecode": "0x60806040523480156200001157600080fd5b506040518060400160405280601481526020017f43727970746f5374616b655265776172644e46540000000000000000000000008152506040518060400160405280600381526020017f435352000000000000000000000000000000000000000000000000000000000081525081600090805190602001906200009692919062000264565b508060019080519060200190620000af92919062000264565b505050620000c76000801b33620000ff60201b60201c565b620000f97f9f2df0fed2c77648de5860a4cc508cd0818c85b8b8a1ab4ceeef8d981c8956a633620000ff60201b60201c565b62000379565b620001118282620001f160201b60201c565b620001ed5760016007600084815260200190815260200160002060000160008373ffffffffffffffffffffffffffffffffffffffff1673ffffffffffffffffffffffffffffffffffffffff16815260200190815260200160002060006101000a81548160ff021916908315150217905550620001926200025c60201b60201c565b73ffffffffffffffffffffffffffffffffffffffff168173ffffffffffffffffffffffffffffffffffffffff16837f2f8788117e7eff1d82e926ec794901d17c78024a50270940304540a733656f0d60405160405180910390a45b5050565b60006007600084815260200190815260200160002060000160008373ffffffffffffffffffffffffffffffffffffffff1673ffffffffffffffffffffffffffffffffffffffff16815260200190815260200160002060009054906101000a900460ff16905092915050565b600033905090565b828054620002729062000314565b90600052602060002090601f016020900481019282620002965760008555620002e2565b82601f10620002b157805160ff1916838001178555620002e2565b82800160010185558215620002e2579182015b82811115620002e1578251825591602001919060010190620002c4565b5b509050620002f19190620002f5565b5090565b5b8082111562000310576000816000905550600101620002f6565b5090565b600060028204905060018216806200032d57607f821691505b602082108114156200034457620003436200034a565b5b50919050565b7f4e487b7100000000000000000000000000000000000000000000000000000000600052602260045260246000fd5b6137db80620003896000396000f3fe608060405234801561001057600080fd5b50600436106101375760003560e01c806370a08231116100b8578063b88d4fde1161007c578063b88d4fde1461035e578063c87b56dd1461037a578063cd279c7c146103aa578063d5391393146103c6578063d547741f146103e4578063e985e9c51461040057610137565b806370a08231146102a657806391d14854146102d657806395d89b4114610306578063a217fddf14610324578063a22cb4651461034257610137565b8063248a9ca3116100ff578063248a9ca3146101f25780632f2ff15d1461022257806336568abe1461023e57806342842e0e1461025a5780636352211e1461027657610137565b806301ffc9a71461013c57806306fdde031461016c578063081812fc1461018a578063095ea7b3146101ba57806323b872dd146101d6575b600080fd5b610156600480360381019061015191906125e9565b610430565b6040516101639190612ac4565b60405180910390f35b610174610442565b6040516101819190612afa565b60405180910390f35b6101a4600480360381019061019f919061263b565b6104d4565b6040516101b19190612a5d565b60405180910390f35b6101d460048036038101906101cf91906124e1565b610559565b005b6101f060048036038101906101eb91906123db565b610671565b005b61020c60048036038101906102079190612584565b6106d1565b6040516102199190612adf565b60405180910390f35b61023c600480360381019061023791906125ad565b6106f1565b005b610258600480360381019061025391906125ad565b61071a565b005b610274600480360381019061026f91906123db565b61079d565b005b610290600480360381019061028b919061263b565b6107bd565b60405161029d9190612a5d565b60405180910390f35b6102c060048036038101906102bb9190612376565b61086f565b6040516102cd9190612d5c565b60405180910390f35b6102f060048036038101906102eb91906125ad565b610927565b6040516102fd9190612ac4565b60405180910390f35b61030e610992565b60405161031b9190612afa565b60405180910390f35b61032c610a24565b6040516103399190612adf565b60405180910390f35b61035c600480360381019061035791906124a5565b610a2b565b005b6103786004803603810190610373919061242a565b610a41565b005b610394600480360381019061038f919061263b565b610aa3565b6040516103a19190612afa565b60405180910390f35b6103c460048036038101906103bf919061251d565b610ab5565b005b6103ce610b01565b6040516103db9190612adf565b60405180910390f35b6103fe60048036038101906103f991906125ad565b610b25565b005b61041a6004803603810190610415919061239f565b610b4e565b6040516104279190612ac4565b60405180910390f35b600061043b82610be2565b9050919050565b60606000805461045190613040565b80601f016020809104026020016040519081016040528092919081815260200182805461047d90613040565b80156104ca5780601f1061049f576101008083540402835291602001916104ca565b820191906000526020600020905b8154815290600101906020018083116104ad57829003601f168201915b5050505050905090565b60006104df82610c5c565b61051e576040517f08c379a000000000000000000000000000000000000000000000000000000000815260040161051590612cbc565b60405180910390fd5b6004600083815260200190815260200160002060009054906101000a900473ffffffffffffffffffffffffffffffffffffffff169050919050565b6000610564826107bd565b90508073ffffffffffffffffffffffffffffffffffffffff168373ffffffffffffffffffffffffffffffffffffffff1614156105d5576040517f08c379a00000000000000000000000000000000000000000000000000000000081526004016105cc90612cfc565b60405180910390fd5b8073ffffffffffffffffffffffffffffffffffffffff166105f4610cc8565b73ffffffffffffffffffffffffffffffffffffffff16148061062357506106228161061d610cc8565b610b4e565b5b610662576040517f08c379a000000000000000000000000000000000000000000000000000000000815260040161065990612bfc565b60405180910390fd5b61066c8383610cd0565b505050565b61068261067c610cc8565b82610d89565b6106c1576040517f08c379a00000000000000000000000000000000000000000000000000000000081526004016106b890612d1c565b60405180910390fd5b6106cc838383610e67565b505050565b600060076000838152602001908152602001600020600101549050919050565b6106fa826106d1565b61070b81610706610cc8565b6110ce565b610715838361116b565b505050565b610722610cc8565b73ffffffffffffffffffffffffffffffffffffffff168173ffffffffffffffffffffffffffffffffffffffff161461078f576040517f08c379a000000000000000000000000000000000000000000000000000000000815260040161078690612d3c565b60405180910390fd5b610799828261124c565b5050565b6107b883838360405180602001604052806000815250610a41565b505050565b6000806002600084815260200190815260200160002060009054906101000a900473ffffffffffffffffffffffffffffffffffffffff169050600073ffffffffffffffffffffffffffffffffffffffff168173ffffffffffffffffffffffffffffffffffffffff161415610866576040517f08c379a000000000000000000000000000000000000000000000000000000000815260040161085d90612c3c565b60405180910390fd5b80915050919050565b60008073ffffffffffffffffffffffffffffffffffffffff168273ffffffffffffffffffffffffffffffffffffffff1614156108e0576040517f08c379a00000000000000000000000000000000000000000000000000000000081526004016108d790612c1c565b60405180910390fd5b600360008373ffffffffffffffffffffffffffffffffffffffff1673ffffffffffffffffffffffffffffffffffffffff168152602001908152602001600020549050919050565b60006007600084815260200190815260200160002060000160008373ffffffffffffffffffffffffffffffffffffffff1673ffffffffffffffffffffffffffffffffffffffff16815260200190815260200160002060009054906101000a900460ff16905092915050565b6060600180546109a190613040565b80601f01602080910402602001604051908101604052809291908181526020018280546109cd90613040565b8015610a1a5780601f106109ef57610100808354040283529160200191610a1a565b820191906000526020600020905b8154815290600101906020018083116109fd57829003601f168201915b5050505050905090565b6000801b81565b610a3d610a36610cc8565b838361132e565b5050565b610a52610a4c610cc8565b83610d89565b610a91576040517f08c379a0000000000000000000000000000000000000000000000000000000008152600401610a8890612d1c565b60405180910390fd5b610a9d8484848461149b565b50505050565b6060610aae826114f7565b9050919050565b7f9f2df0fed2c77648de5860a4cc508cd0818c85b8b8a1ab4ceeef8d981c8956a6610ae781610ae2610cc8565b6110ce565b610af18484611649565b610afb8383611667565b50505050565b7f9f2df0fed2c77648de5860a4cc508cd0818c85b8b8a1ab4ceeef8d981c8956a681565b610b2e826106d1565b610b3f81610b3a610cc8565b6110ce565b610b49838361124c565b505050565b6000600560008473ffffffffffffffffffffffffffffffffffffffff1673ffffffffffffffffffffffffffffffffffffffff16815260200190815260200160002060008373ffffffffffffffffffffffffffffffffffffffff1673ffffffffffffffffffffffffffffffffffffffff16815260200190815260200160002060009054906101000a900460ff16905092915050565b60007f7965db0b000000000000000000000000000000000000000000000000000000007bffffffffffffffffffffffffffffffffffffffffffffffffffffffff1916827bffffffffffffffffffffffffffffffffffffffffffffffffffffffff19161480610c555750610c54826116db565b5b9050919050565b60008073ffffffffffffffffffffffffffffffffffffffff166002600084815260200190815260200160002060009054906101000a900473ffffffffffffffffffffffffffffffffffffffff1673ffffffffffffffffffffffffffffffffffffffff1614159050919050565b600033905090565b816004600083815260200190815260200160002060006101000a81548173ffffffffffffffffffffffffffffffffffffffff021916908373ffffffffffffffffffffffffffffffffffffffff160217905550808273ffffffffffffffffffffffffffffffffffffffff16610d43836107bd565b73ffffffffffffffffffffffffffffffffffffffff167f8c5be1e5ebec7d5bd14f71427d1e84f3dd0314c0f7b2291e5b200ac8c7c3b92560405160405180910390a45050565b6000610d9482610c5c565b610dd3576040517f08c379a0000000000000000000000000000000000000000000000000000000008152600401610dca90612bdc565b60405180910390fd5b6000610dde836107bd565b90508073ffffffffffffffffffffffffffffffffffffffff168473ffffffffffffffffffffffffffffffffffffffff161480610e4d57508373ffffffffffffffffffffffffffffffffffffffff16610e35846104d4565b73ffffffffffffffffffffffffffffffffffffffff16145b80610e5e5750610e5d8185610b4e565b5b91505092915050565b8273ffffffffffffffffffffffffffffffffffffffff16610e87826107bd565b73ffffffffffffffffffffffffffffffffffffffff1614610edd576040517f08c379a0000000000000000000000000000000000000000000000000000000008152600401610ed490612b5c565b60405180910390fd5b600073ffffffffffffffffffffffffffffffffffffffff168273ffffffffffffffffffffffffffffffffffffffff161415610f4d576040517f08c379a0000000000000000000000000000000000000000000000000000000008152600401610f4490612b9c565b60405180910390fd5b610f588383836117bd565b610f63600082610cd0565b6001600360008573ffffffffffffffffffffffffffffffffffffffff1673ffffffffffffffffffffffffffffffffffffffff1681526020019081526020016000206000828254610fb39190612f22565b925050819055506001600360008473ffffffffffffffffffffffffffffffffffffffff1673ffffffffffffffffffffffffffffffffffffffff168152602001908152602001600020600082825461100a9190612e41565b92505081905550816002600083815260200190815260200160002060006101000a81548173ffffffffffffffffffffffffffffffffffffffff021916908373ffffffffffffffffffffffffffffffffffffffff160217905550808273ffffffffffffffffffffffffffffffffffffffff168473ffffffffffffffffffffffffffffffffffffffff167fddf252ad1be2c89b69c2b068fc378daa952ba7f163c4a11628f55a4df523b3ef60405160405180910390a46110c98383836117c2565b505050565b6110d88282610927565b611167576110fd8173ffffffffffffffffffffffffffffffffffffffff1660146117c7565b61110b8360001c60206117c7565b60405160200161111c929190612a23565b6040516020818303038152906040526040517f08c379a000000000000000000000000000000000000000000000000000000000815260040161115e9190612afa565b60405180910390fd5b5050565b6111758282610927565b6112485760016007600084815260200190815260200160002060000160008373ffffffffffffffffffffffffffffffffffffffff1673ffffffffffffffffffffffffffffffffffffffff16815260200190815260200160002060006101000a81548160ff0219169083151502179055506111ed610cc8565b73ffffffffffffffffffffffffffffffffffffffff168173ffffffffffffffffffffffffffffffffffffffff16837f2f8788117e7eff1d82e926ec794901d17c78024a50270940304540a733656f0d60405160405180910390a45b5050565b6112568282610927565b1561132a5760006007600084815260200190815260200160002060000160008373ffffffffffffffffffffffffffffffffffffffff1673ffffffffffffffffffffffffffffffffffffffff16815260200190815260200160002060006101000a81548160ff0219169083151502179055506112cf610cc8565b73ffffffffffffffffffffffffffffffffffffffff168173ffffffffffffffffffffffffffffffffffffffff16837ff6391f5c32d9c69d2a47ea670b442974b53935d1edc7fd64eb21e047a839171b60405160405180910390a45b5050565b8173ffffffffffffffffffffffffffffffffffffffff168373ffffffffffffffffffffffffffffffffffffffff16141561139d576040517f08c379a000000000000000000000000000000000000000000000000000000000815260040161139490612bbc565b60405180910390fd5b80600560008573ffffffffffffffffffffffffffffffffffffffff1673ffffffffffffffffffffffffffffffffffffffff16815260200190815260200160002060008473ffffffffffffffffffffffffffffffffffffffff1673ffffffffffffffffffffffffffffffffffffffff16815260200190815260200160002060006101000a81548160ff0219169083151502179055508173ffffffffffffffffffffffffffffffffffffffff168373ffffffffffffffffffffffffffffffffffffffff167f17307eab39ab6107e8899845ad3d59bd9653f200f220920489ca2b5937696c318360405161148e9190612ac4565b60405180910390a3505050565b6114a6848484610e67565b6114b284848484611ac1565b6114f1576040517f08c379a00000000000000000000000000000000000000000000000000000000081526004016114e890612b3c565b60405180910390fd5b50505050565b606061150282610c5c565b611541576040517f08c379a000000000000000000000000000000000000000000000000000000000815260040161153890612c9c565b60405180910390fd5b600060066000848152602001908152602001600020805461156190613040565b80601f016020809104026020016040519081016040528092919081815260200182805461158d90613040565b80156115da5780601f106115af576101008083540402835291602001916115da565b820191906000526020600020905b8154815290600101906020018083116115bd57829003601f168201915b5050505050905060006115eb611c58565b9050600081511415611601578192505050611644565b60008251111561163657808260405160200161161e9291906129ff565b60405160208183030381529060405292505050611644565b61163f84611c6f565b925050505b919050565b611663828260405180602001604052806000815250611d16565b5050565b61167082610c5c565b6116af576040517f08c379a00000000000000000000000000000000000000000000000000000000081526004016116a690612c5c565b60405180910390fd5b806006600084815260200190815260200160002090805190602001906116d6929190612185565b505050565b60007f80ac58cd000000000000000000000000000000000000000000000000000000007bffffffffffffffffffffffffffffffffffffffffffffffffffffffff1916827bffffffffffffffffffffffffffffffffffffffffffffffffffffffff191614806117a657507f5b5e139f000000000000000000000000000000000000000000000000000000007bffffffffffffffffffffffffffffffffffffffffffffffffffffffff1916827bffffffffffffffffffffffffffffffffffffffffffffffffffffffff1916145b806117b657506117b582611d71565b5b9050919050565b505050565b505050565b6060600060028360026117da9190612ec8565b6117e49190612e41565b67ffffffffffffffff811115611823577f4e487b7100000000000000000000000000000000000000000000000000000000600052604160045260246000fd5b6040519080825280601f01601f1916602001820160405280156118555781602001600182028036833780820191505090505b5090507f3000000000000000000000000000000000000000000000000000000000000000816000815181106118b3577f4e487b7100000000000000000000000000000000000000000000000000000000600052603260045260246000fd5b60200101907effffffffffffffffffffffffffffffffffffffffffffffffffffffffffffff1916908160001a9053507f78000000000000000000000000000000000000000000000000000000000000008160018151811061193d577f4e487b7100000000000000000000000000000000000000000000000000000000600052603260045260246000fd5b60200101907effffffffffffffffffffffffffffffffffffffffffffffffffffffffffffff1916908160001a9053506000600184600261197d9190612ec8565b6119879190612e41565b90505b6001811115611a73577f3031323334353637383961626364656600000000000000000000000000000000600f8616601081106119ef577f4e487b7100000000000000000000000000000000000000000000000000000000600052603260045260246000fd5b1a60f81b828281518110611a2c577f4e487b7100000000000000000000000000000000000000000000000000000000600052603260045260246000fd5b60200101907effffffffffffffffffffffffffffffffffffffffffffffffffffffffffffff1916908160001a905350600485901c945080611a6c90613016565b905061198a565b5060008414611ab7576040517f08c379a0000000000000000000000000000000000000000000000000000000008152600401611aae90612b1c565b60405180910390fd5b8091505092915050565b6000611ae28473ffffffffffffffffffffffffffffffffffffffff16611ddb565b15611c4b578373ffffffffffffffffffffffffffffffffffffffff1663150b7a02611b0b610cc8565b8786866040518563ffffffff1660e01b8152600401611b2d9493929190612a78565b602060405180830381600087803b158015611b4757600080fd5b505af1925050508015611b7857506040513d601f19601f82011682018060405250810190611b759190612612565b60015b611bfb573d8060008114611ba8576040519150601f19603f3d011682016040523d82523d6000602084013e611bad565b606091505b50600081511415611bf3576040517f08c379a0000000000000000000000000000000000000000000000000000000008152600401611bea90612b3c565b60405180910390fd5b805181602001fd5b63150b7a0260e01b7bffffffffffffffffffffffffffffffffffffffffffffffffffffffff1916817bffffffffffffffffffffffffffffffffffffffffffffffffffffffff191614915050611c50565b600190505b949350505050565b606060405180602001604052806000815250905090565b6060611c7a82610c5c565b611cb9576040517f08c379a0000000000000000000000000000000000000000000000000000000008152600401611cb090612cdc565b60405180910390fd5b6000611cc3611c58565b90506000815111611ce35760405180602001604052806000815250611d0e565b80611ced84611dfe565b604051602001611cfe9291906129ff565b6040516020818303038152906040525b915050919050565b611d208383611fab565b611d2d6000848484611ac1565b611d6c576040517f08c379a0000000000000000000000000000000000000000000000000000000008152600401611d6390612b3c565b60405180910390fd5b505050565b60007f01ffc9a7000000000000000000000000000000000000000000000000000000007bffffffffffffffffffffffffffffffffffffffffffffffffffffffff1916827bffffffffffffffffffffffffffffffffffffffffffffffffffffffff1916149050919050565b6000808273ffffffffffffffffffffffffffffffffffffffff163b119050919050565b60606000821415611e46576040518060400160405280600181526020017f30000000000000000000000000000000000000000000000000000000000000008152509050611fa6565b600082905060005b60008214611e78578080611e61906130a3565b915050600a82611e719190612e97565b9150611e4e565b60008167ffffffffffffffff811115611eba577f4e487b7100000000000000000000000000000000000000000000000000000000600052604160045260246000fd5b6040519080825280601f01601f191660200182016040528015611eec5781602001600182028036833780820191505090505b5090505b60008514611f9f57600182611f059190612f22565b9150600a85611f1491906130ec565b6030611f209190612e41565b60f81b818381518110611f5c577f4e487b7100000000000000000000000000000000000000000000000000000000600052603260045260246000fd5b60200101907effffffffffffffffffffffffffffffffffffffffffffffffffffffffffffff1916908160001a905350600a85611f989190612e97565b9450611ef0565b8093505050505b919050565b600073ffffffffffffffffffffffffffffffffffffffff168273ffffffffffffffffffffffffffffffffffffffff16141561201b576040517f08c379a000000000000000000000000000000000000000000000000000000000815260040161201290612c7c565b60405180910390fd5b61202481610c5c565b15612064576040517f08c379a000000000000000000000000000000000000000000000000000000000815260040161205b90612b7c565b60405180910390fd5b612070600083836117bd565b6001600360008473ffffffffffffffffffffffffffffffffffffffff1673ffffffffffffffffffffffffffffffffffffffff16815260200190815260200160002060008282546120c09190612e41565b92505081905550816002600083815260200190815260200160002060006101000a81548173ffffffffffffffffffffffffffffffffffffffff021916908373ffffffffffffffffffffffffffffffffffffffff160217905550808273ffffffffffffffffffffffffffffffffffffffff16600073ffffffffffffffffffffffffffffffffffffffff167fddf252ad1be2c89b69c2b068fc378daa952ba7f163c4a11628f55a4df523b3ef60405160405180910390a4612181600083836117c2565b5050565b82805461219190613040565b90600052602060002090601f0160209004810192826121b357600085556121fa565b82601f106121cc57805160ff19168380011785556121fa565b828001600101855582156121fa579182015b828111156121f95782518255916020019190600101906121de565b5b509050612207919061220b565b5090565b5b8082111561222457600081600090555060010161220c565b5090565b600061223b61223684612d9c565b612d77565b90508281526020810184848401111561225357600080fd5b61225e848285612fd4565b509392505050565b600061227961227484612dcd565b612d77565b90508281526020810184848401111561229157600080fd5b61229c848285612fd4565b509392505050565b6000813590506122b381613732565b92915050565b6000813590506122c881613749565b92915050565b6000813590506122dd81613760565b92915050565b6000813590506122f281613777565b92915050565b60008151905061230781613777565b92915050565b600082601f83011261231e57600080fd5b813561232e848260208601612228565b91505092915050565b600082601f83011261234857600080fd5b8135612358848260208601612266565b91505092915050565b6000813590506123708161378e565b92915050565b60006020828403121561238857600080fd5b6000612396848285016122a4565b91505092915050565b600080604083850312156123b257600080fd5b60006123c0858286016122a4565b92505060206123d1858286016122a4565b9150509250929050565b6000806000606084860312156123f057600080fd5b60006123fe868287016122a4565b935050602061240f868287016122a4565b925050604061242086828701612361565b9150509250925092565b6000806000806080858703121561244057600080fd5b600061244e878288016122a4565b945050602061245f878288016122a4565b935050604061247087828801612361565b925050606085013567ffffffffffffffff81111561248d57600080fd5b6124998782880161230d565b91505092959194509250565b600080604083850312156124b857600080fd5b60006124c6858286016122a4565b92505060206124d7858286016122b9565b9150509250929050565b600080604083850312156124f457600080fd5b6000612502858286016122a4565b925050602061251385828601612361565b9150509250929050565b60008060006060848603121561253257600080fd5b6000612540868287016122a4565b935050602061255186828701612361565b925050604084013567ffffffffffffffff81111561256e57600080fd5b61257a86828701612337565b9150509250925092565b60006020828403121561259657600080fd5b60006125a4848285016122ce565b91505092915050565b600080604083850312156125c057600080fd5b60006125ce858286016122ce565b92505060206125df858286016122a4565b9150509250929050565b6000602082840312156125fb57600080fd5b6000612609848285016122e3565b91505092915050565b60006020828403121561262457600080fd5b6000612632848285016122f8565b91505092915050565b60006020828403121561264d57600080fd5b600061265b84828501612361565b91505092915050565b61266d81612f56565b82525050565b61267c81612f68565b82525050565b61268b81612f74565b82525050565b600061269c82612dfe565b6126a68185612e14565b93506126b6818560208601612fe3565b6126bf816131d9565b840191505092915050565b60006126d582612e09565b6126df8185612e25565b93506126ef818560208601612fe3565b6126f8816131d9565b840191505092915050565b600061270e82612e09565b6127188185612e36565b9350612728818560208601612fe3565b80840191505092915050565b6000612741602083612e25565b915061274c826131ea565b602082019050919050565b6000612764603283612e25565b915061276f82613213565b604082019050919050565b6000612787602583612e25565b915061279282613262565b604082019050919050565b60006127aa601c83612e25565b91506127b5826132b1565b602082019050919050565b60006127cd602483612e25565b91506127d8826132da565b604082019050919050565b60006127f0601983612e25565b91506127fb82613329565b602082019050919050565b6000612813602c83612e25565b915061281e82613352565b604082019050919050565b6000612836603883612e25565b9150612841826133a1565b604082019050919050565b6000612859602a83612e25565b9150612864826133f0565b604082019050919050565b600061287c602983612e25565b91506128878261343f565b604082019050919050565b600061289f602e83612e25565b91506128aa8261348e565b604082019050919050565b60006128c2602083612e25565b91506128cd826134dd565b602082019050919050565b60006128e5603183612e25565b91506128f082613506565b604082019050919050565b6000612908602c83612e25565b915061291382613555565b604082019050919050565b600061292b602f83612e25565b9150612936826135a4565b604082019050919050565b600061294e602183612e25565b9150612959826135f3565b604082019050919050565b6000612971603183612e25565b915061297c82613642565b604082019050919050565b6000612994601783612e36565b915061299f82613691565b601782019050919050565b60006129b7601183612e36565b91506129c2826136ba565b601182019050919050565b60006129da602f83612e25565b91506129e5826136e3565b604082019050919050565b6129f981612fca565b82525050565b6000612a0b8285612703565b9150612a178284612703565b91508190509392505050565b6000612a2e82612987565b9150612a3a8285612703565b9150612a45826129aa565b9150612a518284612703565b91508190509392505050565b6000602082019050612a726000830184612664565b92915050565b6000608082019050612a8d6000830187612664565b612a9a6020830186612664565b612aa760408301856129f0565b8181036060830152612ab98184612691565b905095945050505050565b6000602082019050612ad96000830184612673565b92915050565b6000602082019050612af46000830184612682565b92915050565b60006020820190508181036000830152612b1481846126ca565b905092915050565b60006020820190508181036000830152612b3581612734565b9050919050565b60006020820190508181036000830152612b5581612757565b9050919050565b60006020820190508181036000830152612b758161277a565b9050919050565b60006020820190508181036000830152612b958161279d565b9050919050565b60006020820190508181036000830152612bb5816127c0565b9050919050565b60006020820190508181036000830152612bd5816127e3565b9050919050565b60006020820190508181036000830152612bf581612806565b9050919050565b60006020820190508181036000830152612c1581612829565b9050919050565b60006020820190508181036000830152612c358161284c565b9050919050565b60006020820190508181036000830152612c558161286f565b9050919050565b60006020820190508181036000830152612c7581612892565b9050919050565b60006020820190508181036000830152612c95816128b5565b9050919050565b60006020820190508181036000830152612cb5816128d8565b9050919050565b60006020820190508181036000830152612cd5816128fb565b9050919050565b60006020820190508181036000830152612cf58161291e565b9050919050565b60006020820190508181036000830152612d1581612941565b9050919050565b60006020820190508181036000830152612d3581612964565b9050919050565b60006020820190508181036000830152612d55816129cd565b9050919050565b6000602082019050612d7160008301846129f0565b92915050565b6000612d81612d92565b9050612d8d8282613072565b919050565b6000604051905090565b600067ffffffffffffffff821115612db757612db66131aa565b5b612dc0826131d9565b9050602081019050919050565b600067ffffffffffffffff821115612de857612de76131aa565b5b612df1826131d9565b9050602081019050919050565b600081519050919050565b600081519050919050565b600082825260208201905092915050565b600082825260208201905092915050565b600081905092915050565b6000612e4c82612fca565b9150612e5783612fca565b9250827fffffffffffffffffffffffffffffffffffffffffffffffffffffffffffffffff03821115612e8c57612e8b61311d565b5b828201905092915050565b6000612ea282612fca565b9150612ead83612fca565b925082612ebd57612ebc61314c565b5b828204905092915050565b6000612ed382612fca565b9150612ede83612fca565b9250817fffffffffffffffffffffffffffffffffffffffffffffffffffffffffffffffff0483118215151615612f1757612f1661311d565b5b828202905092915050565b6000612f2d82612fca565b9150612f3883612fca565b925082821015612f4b57612f4a61311d565b5b828203905092915050565b6000612f6182612faa565b9050919050565b60008115159050919050565b6000819050919050565b60007fffffffff0000000000000000000000000000000000000000000000000000000082169050919050565b600073ffffffffffffffffffffffffffffffffffffffff82169050919050565b6000819050919050565b82818337600083830152505050565b60005b83811015613001578082015181840152602081019050612fe6565b83811115613010576000848401525b50505050565b600061302182612fca565b915060008214156130355761303461311d565b5b600182039050919050565b6000600282049050600182168061305857607f821691505b6020821081141561306c5761306b61317b565b5b50919050565b61307b826131d9565b810181811067ffffffffffffffff8211171561309a576130996131aa565b5b80604052505050565b60006130ae82612fca565b91507fffffffffffffffffffffffffffffffffffffffffffffffffffffffffffffffff8214156130e1576130e061311d565b5b600182019050919050565b60006130f782612fca565b915061310283612fca565b9250826131125761311161314c565b5b828206905092915050565b7f4e487b7100000000000000000000000000000000000000000000000000000000600052601160045260246000fd5b7f4e487b7100000000000000000000000000000000000000000000000000000000600052601260045260246000fd5b7f4e487b7100000000000000000000000000000000000000000000000000000000600052602260045260246000fd5b7f4e487b7100000000000000000000000000000000000000000000000000000000600052604160045260246000fd5b6000601f19601f8301169050919050565b7f537472696e67733a20686578206c656e67746820696e73756666696369656e74600082015250565b7f4552433732313a207472616e7366657220746f206e6f6e20455243373231526560008201527f63656976657220696d706c656d656e7465720000000000000000000000000000602082015250565b7f4552433732313a207472616e736665722066726f6d20696e636f72726563742060008201527f6f776e6572000000000000000000000000000000000000000000000000000000602082015250565b7f4552433732313a20746f6b656e20616c7265616479206d696e74656400000000600082015250565b7f4552433732313a207472616e7366657220746f20746865207a65726f2061646460008201527f7265737300000000000000000000000000000000000000000000000000000000602082015250565b7f4552433732313a20617070726f766520746f2063616c6c657200000000000000600082015250565b7f4552433732313a206f70657261746f7220717565727920666f72206e6f6e657860008201527f697374656e7420746f6b656e0000000000000000000000000000000000000000602082015250565b7f4552433732313a20617070726f76652063616c6c6572206973206e6f74206f7760008201527f6e6572206e6f7220617070726f76656420666f7220616c6c0000000000000000602082015250565b7f4552433732313a2062616c616e636520717565727920666f7220746865207a6560008201527f726f206164647265737300000000000000000000000000000000000000000000602082015250565b7f4552433732313a206f776e657220717565727920666f72206e6f6e657869737460008201527f656e7420746f6b656e0000000000000000000000000000000000000000000000602082015250565b7f45524337323155524953746f726167653a2055524920736574206f66206e6f6e60008201527f6578697374656e7420746f6b656e000000000000000000000000000000000000602082015250565b7f4552433732313a206d696e7420746f20746865207a65726f2061646472657373600082015250565b7f45524337323155524953746f726167653a2055524920717565727920666f722060008201527f6e6f6e6578697374656e7420746f6b656e000000000000000000000000000000602082015250565b7f4552433732313a20617070726f76656420717565727920666f72206e6f6e657860008201527f697374656e7420746f6b656e0000000000000000000000000000000000000000602082015250565b7f4552433732314d657461646174613a2055524920717565727920666f72206e6f60008201527f6e6578697374656e7420746f6b656e0000000000000000000000000000000000602082015250565b7f4552433732313a20617070726f76616c20746f2063757272656e74206f776e6560008201527f7200000000000000000000000000000000000000000000000000000000000000602082015250565b7f4552433732313a207472616e736665722063616c6c6572206973206e6f74206f60008201527f776e6572206e6f7220617070726f766564000000000000000000000000000000602082015250565b7f416363657373436f6e74726f6c3a206163636f756e7420000000000000000000600082015250565b7f206973206d697373696e6720726f6c6520000000000000000000000000000000600082015250565b7f416363657373436f6e74726f6c3a2063616e206f6e6c792072656e6f756e636560008201527f20726f6c657320666f722073656c660000000000000000000000000000000000602082015250565b61373b81612f56565b811461374657600080fd5b50565b61375281612f68565b811461375d57600080fd5b50565b61376981612f74565b811461377457600080fd5b50565b61378081612f7e565b811461378b57600080fd5b50565b61379781612fca565b81146137a257600080fd5b5056fea2646970667358221220c8fa781b2d9958f3cfe02cc8db2212bd5c149ce24fe7092f56065517b4cd480864736f6c63430008020033",
  "immutableReferences": {},
  "source": "// SPDX-License-Identifier: MIT\r\npragma solidity ^0.8.2;\r\n\r\nimport \"@openzeppelin/contracts/token/ERC721/ERC721.sol\";\r\nimport \"@openzeppelin/contracts/token/ERC721/extensions/ERC721URIStorage.sol\";\r\nimport \"@openzeppelin/contracts/access/AccessControl.sol\";\r\n\r\ncontract CryptoStakeRewardNFT is ERC721, ERC721URIStorage, AccessControl {\r\n    bytes32 public constant MINTER_ROLE = keccak256(\"MINTER_ROLE\");\r\n\r\n    constructor() ERC721(\"CryptoStakeRewardNFT\", \"CSR\") {\r\n        _grantRole(DEFAULT_ADMIN_ROLE, msg.sender);\r\n        _grantRole(MINTER_ROLE, msg.sender);\r\n    }\r\n\r\n    function safeMint(address to, uint256 tokenId, string memory uri)\r\n        public\r\n        onlyRole(MINTER_ROLE)\r\n    {\r\n        _safeMint(to, tokenId);\r\n        _setTokenURI(tokenId, uri);\r\n    }\r\n\r\n    // The following functions are overrides required by Solidity.\r\n\r\n    function _burn(uint256 tokenId) internal override(ERC721, ERC721URIStorage) {\r\n        super._burn(tokenId);\r\n    }\r\n\r\n    function tokenURI(uint256 tokenId)\r\n        public\r\n        view\r\n        override(ERC721, ERC721URIStorage)\r\n        returns (string memory)\r\n    {\r\n        return super.tokenURI(tokenId);\r\n    }\r\n\r\n    function supportsInterface(bytes4 interfaceId)\r\n        public\r\n        view\r\n        override(ERC721, AccessControl)\r\n        returns (bool)\r\n    {\r\n        return super.supportsInterface(interfaceId);\r\n    }\r\n}",
  "sourcePath": "D:/Hackathons/Devfolio online/ByteSynergy/project/CryptoStack/truffle/contracts/CryptoStakeRewardNFT.sol",
  "compiler": {
    "name": "solc",
    "version": "0.8.2+commit.661d1103.Emscripten.clang"
  },
  "schemaVersion": "3.4.1",
  "updatedAt": "2022-02-12T09:15:29.679Z",
  "devdoc": {
    "kind": "dev",
    "methods": {
      "approve(address,uint256)": {
        "details": "See {IERC721-approve}."
      },
      "balanceOf(address)": {
        "details": "See {IERC721-balanceOf}."
      },
      "getApproved(uint256)": {
        "details": "See {IERC721-getApproved}."
      },
      "getRoleAdmin(bytes32)": {
        "details": "Returns the admin role that controls `role`. See {grantRole} and {revokeRole}. To change a role's admin, use {_setRoleAdmin}."
      },
      "grantRole(bytes32,address)": {
        "details": "Grants `role` to `account`. If `account` had not been already granted `role`, emits a {RoleGranted} event. Requirements: - the caller must have ``role``'s admin role."
      },
      "hasRole(bytes32,address)": {
        "details": "Returns `true` if `account` has been granted `role`."
      },
      "isApprovedForAll(address,address)": {
        "details": "See {IERC721-isApprovedForAll}."
      },
      "name()": {
        "details": "See {IERC721Metadata-name}."
      },
      "ownerOf(uint256)": {
        "details": "See {IERC721-ownerOf}."
      },
      "renounceRole(bytes32,address)": {
        "details": "Revokes `role` from the calling account. Roles are often managed via {grantRole} and {revokeRole}: this function's purpose is to provide a mechanism for accounts to lose their privileges if they are compromised (such as when a trusted device is misplaced). If the calling account had been revoked `role`, emits a {RoleRevoked} event. Requirements: - the caller must be `account`."
      },
      "revokeRole(bytes32,address)": {
        "details": "Revokes `role` from `account`. If `account` had been granted `role`, emits a {RoleRevoked} event. Requirements: - the caller must have ``role``'s admin role."
      },
      "safeTransferFrom(address,address,uint256)": {
        "details": "See {IERC721-safeTransferFrom}."
      },
      "safeTransferFrom(address,address,uint256,bytes)": {
        "details": "See {IERC721-safeTransferFrom}."
      },
      "setApprovalForAll(address,bool)": {
        "details": "See {IERC721-setApprovalForAll}."
      },
      "symbol()": {
        "details": "See {IERC721Metadata-symbol}."
      },
      "transferFrom(address,address,uint256)": {
        "details": "See {IERC721-transferFrom}."
      }
    },
    "version": 1
  },
  "userdoc": {
    "kind": "user",
    "methods": {},
    "version": 1
  }
}