{
  "contractName": "CryptoStackMain",
  "abi": [
    {
      "anonymous": false,
      "inputs": [
        {
          "indexed": true,
          "internalType": "address",
          "name": "previousOwner",
          "type": "address"
        },
        {
          "indexed": true,
          "internalType": "address",
          "name": "newOwner",
          "type": "address"
        }
      ],
      "name": "OwnershipTransferred",
      "type": "event"
    },
    {
      "inputs": [],
      "name": "answerCount",
      "outputs": [
        {
          "internalType": "uint256",
          "name": "",
          "type": "uint256"
        }
      ],
      "stateMutability": "view",
      "type": "function"
    },
    {
      "inputs": [
        {
          "internalType": "uint256",
          "name": "",
          "type": "uint256"
        }
      ],
      "name": "answers",
      "outputs": [
        {
          "internalType": "uint256",
          "name": "id",
          "type": "uint256"
        },
        {
          "internalType": "uint256",
          "name": "questionId",
          "type": "uint256"
        },
        {
          "internalType": "bool",
          "name": "isAccepted",
          "type": "bool"
        },
        {
          "internalType": "address payable",
          "name": "replierAddress",
          "type": "address"
        },
        {
          "internalType": "string",
          "name": "answerString",
          "type": "string"
        }
      ],
      "stateMutability": "view",
      "type": "function"
    },
    {
      "inputs": [],
      "name": "owner",
      "outputs": [
        {
          "internalType": "address",
          "name": "",
          "type": "address"
        }
      ],
      "stateMutability": "view",
      "type": "function"
    },
    {
      "inputs": [],
      "name": "questionCount",
      "outputs": [
        {
          "internalType": "uint256",
          "name": "",
          "type": "uint256"
        }
      ],
      "stateMutability": "view",
      "type": "function"
    },
    {
      "inputs": [
        {
          "internalType": "uint256",
          "name": "",
          "type": "uint256"
        }
      ],
      "name": "questions",
      "outputs": [
        {
          "internalType": "uint256",
          "name": "id",
          "type": "uint256"
        },
        {
          "internalType": "address",
          "name": "questionaireAddress",
          "type": "address"
        },
        {
          "internalType": "bool",
          "name": "isAnswered",
          "type": "bool"
        },
        {
          "internalType": "string",
          "name": "questionString",
          "type": "string"
        }
      ],
      "stateMutability": "view",
      "type": "function"
    },
    {
      "inputs": [],
      "name": "renounceOwnership",
      "outputs": [],
      "stateMutability": "nonpayable",
      "type": "function"
    },
    {
      "inputs": [
        {
          "internalType": "address",
          "name": "newOwner",
          "type": "address"
        }
      ],
      "name": "transferOwnership",
      "outputs": [],
      "stateMutability": "nonpayable",
      "type": "function"
    },
    {
      "inputs": [],
      "name": "userCount",
      "outputs": [
        {
          "internalType": "uint256",
          "name": "",
          "type": "uint256"
        }
      ],
      "stateMutability": "view",
      "type": "function"
    },
    {
      "inputs": [
        {
          "internalType": "uint256",
          "name": "",
          "type": "uint256"
        }
      ],
      "name": "users",
      "outputs": [
        {
          "internalType": "uint256",
          "name": "userPoints",
          "type": "uint256"
        },
        {
          "internalType": "address",
          "name": "userAddress",
          "type": "address"
        },
        {
          "internalType": "string",
          "name": "userName",
          "type": "string"
        }
      ],
      "stateMutability": "view",
      "type": "function"
    },
    {
      "inputs": [
        {
          "internalType": "address",
          "name": "_user",
          "type": "address"
        }
      ],
      "name": "isRegisteredUser",
      "outputs": [
        {
          "internalType": "bool",
          "name": "",
          "type": "bool"
        }
      ],
      "stateMutability": "view",
      "type": "function"
    },
    {
      "inputs": [
        {
          "internalType": "address",
          "name": "_user",
          "type": "address"
        }
      ],
      "name": "isFrequentContributor",
      "outputs": [
        {
          "internalType": "bool",
          "name": "",
          "type": "bool"
        }
      ],
      "stateMutability": "view",
      "type": "function"
    },
    {
      "inputs": [
        {
          "internalType": "address",
          "name": "_NFTContractAddress",
          "type": "address"
        }
      ],
      "name": "setNFTContractAddress",
      "outputs": [],
      "stateMutability": "nonpayable",
      "type": "function"
    },
    {
      "inputs": [
        {
          "internalType": "string",
          "name": "_userName",
          "type": "string"
        }
      ],
      "name": "registerNewUser",
      "outputs": [],
      "stateMutability": "nonpayable",
      "type": "function"
    },
    {
      "inputs": [
        {
          "internalType": "string",
          "name": "_questionString",
          "type": "string"
        }
      ],
      "name": "createNewQuestion",
      "outputs": [],
      "stateMutability": "nonpayable",
      "type": "function"
    },
    {
      "inputs": [
        {
          "internalType": "uint256",
          "name": "_questionId",
          "type": "uint256"
        },
        {
          "internalType": "string",
          "name": "_answerString",
          "type": "string"
        }
      ],
      "name": "answerQuestion",
      "outputs": [],
      "stateMutability": "nonpayable",
      "type": "function"
    },
    {
      "inputs": [
        {
          "internalType": "uint256",
          "name": "_answerId",
          "type": "uint256"
        }
      ],
      "name": "acceptAnswer",
      "outputs": [],
      "stateMutability": "nonpayable",
      "type": "function"
    },
    {
      "inputs": [
        {
          "internalType": "string",
          "name": "_uri",
          "type": "string"
        }
      ],
      "name": "payToMint",
      "outputs": [],
      "stateMutability": "payable",
      "type": "function"
    }
  ],
  "bytecode": "0x608060405234801561001057600080fd5b5061002d61002261003260201b60201c565b61003a60201b60201c565b6100fe565b600033905090565b60008060009054906101000a900473ffffffffffffffffffffffffffffffffffffffff169050816000806101000a81548173ffffffffffffffffffffffffffffffffffffffff021916908373ffffffffffffffffffffffffffffffffffffffff1602179055508173ffffffffffffffffffffffffffffffffffffffff168173ffffffffffffffffffffffffffffffffffffffff167f8be0079c531659141344cd1fd0a4f28419497f9722a3daafe3b4186f6b6457e060405160405180910390a35050565b611f068061010d6000396000f3fe6080604052600436106100fe5760003560e01c8063365b98b211610095578063715018a611610064578063715018a6146103555780638da5cb5b1461036c578063986bd4c914610397578063995ac4fd146103c0578063f2fde38b146103e9576100fe565b8063365b98b214610294578063447e52a0146102d3578063537efe31146102fc5780635a89bf1414610318576100fe565b806317599cc5116100d157806317599cc5146101ad5780631f5bdf5d146101ee57806323949cd11461022b57806331b1b97814610254576100fe565b806307973ccf146101035780630aab0b541461012e5780630bed0502146101575780631468aa2c14610182575b600080fd5b34801561010f57600080fd5b50610118610412565b6040516101259190611a2b565b60405180910390f35b34801561013a57600080fd5b5061015560048036038101906101509190611786565b610418565b005b34801561016357600080fd5b5061016c610592565b6040516101799190611a2b565b60405180910390f35b34801561018e57600080fd5b50610197610598565b6040516101a49190611a2b565b60405180910390f35b3480156101b957600080fd5b506101d460048036038101906101cf91906117c7565b61059e565b6040516101e5959493929190611ad0565b60405180910390f35b3480156101fa57600080fd5b506102156004803603810190610210919061175d565b610699565b6040516102229190611990565b60405180910390f35b34801561023757600080fd5b50610252600480360381019061024d919061175d565b610768565b005b34801561026057600080fd5b5061027b600480360381019061027691906117c7565b610828565b60405161028b9493929190611a46565b60405180910390f35b3480156102a057600080fd5b506102bb60048036038101906102b691906117c7565b61091d565b6040516102ca93929190611a92565b60405180910390f35b3480156102df57600080fd5b506102fa60048036038101906102f591906117f0565b6109ff565b005b61031660048036038101906103119190611786565b610cac565b005b34801561032457600080fd5b5061033f600480360381019061033a919061175d565b610de7565b60405161034c9190611990565b60405180910390f35b34801561036157600080fd5b5061036a610f0d565b005b34801561037857600080fd5b50610381610f95565b60405161038e9190611945565b60405180910390f35b3480156103a357600080fd5b506103be60048036038101906103b991906117c7565b610fbe565b005b3480156103cc57600080fd5b506103e760048036038101906103e29190611786565b61135c565b005b3480156103f557600080fd5b50610410600480360381019061040b919061175d565b611464565b005b60025481565b61042133610699565b610460576040517f08c379a000000000000000000000000000000000000000000000000000000000815260040161045790611a0b565b60405180910390fd5b604051806080016040528060035481526020013373ffffffffffffffffffffffffffffffffffffffff168152602001600015158152602001828152506006600354815481106104d8577f4e487b7100000000000000000000000000000000000000000000000000000000600052603260045260246000fd5b90600052602060002090600302016000820151816000015560208201518160010160006101000a81548173ffffffffffffffffffffffffffffffffffffffff021916908373ffffffffffffffffffffffffffffffffffffffff16021790555060408201518160010160146101000a81548160ff0219169083151502179055506060820151816002019080519060200190610573929190611628565b509050506003600081548092919061058a90611cf1565b919050555050565b60045481565b60035481565b600781815481106105ae57600080fd5b90600052602060002090600402016000915090508060000154908060010154908060020160009054906101000a900460ff16908060020160019054906101000a900473ffffffffffffffffffffffffffffffffffffffff169080600301805461061690611c8e565b80601f016020809104026020016040519081016040528092919081815260200182805461064290611c8e565b801561068f5780601f106106645761010080835404028352916020019161068f565b820191906000526020600020905b81548152906001019060200180831161067257829003601f168201915b5050505050905085565b60008060005b60025481101561075e578373ffffffffffffffffffffffffffffffffffffffff16600582815481106106fa577f4e487b7100000000000000000000000000000000000000000000000000000000600052603260045260246000fd5b906000526020600020906003020160010160009054906101000a900473ffffffffffffffffffffffffffffffffffffffff1673ffffffffffffffffffffffffffffffffffffffff16141561074d57600191505b8061075790611cf1565b905061069f565b5080915050919050565b61077061155c565b73ffffffffffffffffffffffffffffffffffffffff1661078e610f95565b73ffffffffffffffffffffffffffffffffffffffff16146107e4576040517f08c379a00000000000000000000000000000000000000000000000000000000081526004016107db906119cb565b60405180910390fd5b80600160006101000a81548173ffffffffffffffffffffffffffffffffffffffff021916908373ffffffffffffffffffffffffffffffffffffffff16021790555050565b6006818154811061083857600080fd5b90600052602060002090600302016000915090508060000154908060010160009054906101000a900473ffffffffffffffffffffffffffffffffffffffff16908060010160149054906101000a900460ff169080600201805461089a90611c8e565b80601f01602080910402602001604051908101604052809291908181526020018280546108c690611c8e565b80156109135780601f106108e857610100808354040283529160200191610913565b820191906000526020600020905b8154815290600101906020018083116108f657829003601f168201915b5050505050905084565b6005818154811061092d57600080fd5b90600052602060002090600302016000915090508060000154908060010160009054906101000a900473ffffffffffffffffffffffffffffffffffffffff169080600201805461097c90611c8e565b80601f01602080910402602001604051908101604052809291908181526020018280546109a890611c8e565b80156109f55780601f106109ca576101008083540402835291602001916109f5565b820191906000526020600020905b8154815290600101906020018083116109d857829003601f168201915b5050505050905083565b610a0833610699565b610a47576040517f08c379a0000000000000000000000000000000000000000000000000000000008152600401610a3e90611a0b565b60405180910390fd5b6040518060a0016040528060045481526020018381526020016000151581526020013373ffffffffffffffffffffffffffffffffffffffff16815260200182815250600760045481548110610ac5577f4e487b7100000000000000000000000000000000000000000000000000000000600052603260045260246000fd5b9060005260206000209060040201600082015181600001556020820151816001015560408201518160020160006101000a81548160ff02191690831515021790555060608201518160020160016101000a81548173ffffffffffffffffffffffffffffffffffffffff021916908373ffffffffffffffffffffffffffffffffffffffff1602179055506080820151816003019080519060200190610b6a929190611628565b5090505060005b600254811015610c8f573373ffffffffffffffffffffffffffffffffffffffff1660058281548110610bcc577f4e487b7100000000000000000000000000000000000000000000000000000000600052603260045260246000fd5b906000526020600020906003020160010160009054906101000a900473ffffffffffffffffffffffffffffffffffffffff1673ffffffffffffffffffffffffffffffffffffffff161415610c7e57600a60058281548110610c56577f4e487b7100000000000000000000000000000000000000000000000000000000600052603260045260246000fd5b90600052602060002090600302016000016000828254610c769190611b9c565b925050819055505b80610c8890611cf1565b9050610b71565b5060046000815480929190610ca390611cf1565b91905055505050565b610cb533610de7565b15610d095766b1a2bc2ec50000341015610d04576040517f08c379a0000000000000000000000000000000000000000000000000000000008152600401610cfb906119eb565b60405180910390fd5b610d55565b67016345785d8a0000341015610d54576040517f08c379a0000000000000000000000000000000000000000000000000000000008152600401610d4b906119eb565b60405180910390fd5b5b600160009054906101000a900473ffffffffffffffffffffffffffffffffffffffff1673ffffffffffffffffffffffffffffffffffffffff1663d204c45e33836040518363ffffffff1660e01b8152600401610db2929190611960565b600060405180830381600087803b158015610dcc57600080fd5b505af1158015610de0573d6000803e3d6000fd5b5050505050565b60008060005b600254811015610f03578373ffffffffffffffffffffffffffffffffffffffff1660058281548110610e48577f4e487b7100000000000000000000000000000000000000000000000000000000600052603260045260246000fd5b906000526020600020906003020160010160009054906101000a900473ffffffffffffffffffffffffffffffffffffffff1673ffffffffffffffffffffffffffffffffffffffff16148015610ee85750606460058281548110610ed4577f4e487b7100000000000000000000000000000000000000000000000000000000600052603260045260246000fd5b906000526020600020906003020160000154115b15610ef257600191505b80610efc90611cf1565b9050610ded565b5080915050919050565b610f1561155c565b73ffffffffffffffffffffffffffffffffffffffff16610f33610f95565b73ffffffffffffffffffffffffffffffffffffffff1614610f89576040517f08c379a0000000000000000000000000000000000000000000000000000000008152600401610f80906119cb565b60405180910390fd5b610f936000611564565b565b60008060009054906101000a900473ffffffffffffffffffffffffffffffffffffffff16905090565b600060078281548110610ffa577f4e487b7100000000000000000000000000000000000000000000000000000000600052603260045260246000fd5b90600052602060002090600402016040518060a001604052908160008201548152602001600182015481526020016002820160009054906101000a900460ff161515151581526020016002820160019054906101000a900473ffffffffffffffffffffffffffffffffffffffff1673ffffffffffffffffffffffffffffffffffffffff1673ffffffffffffffffffffffffffffffffffffffff1681526020016003820180546110a890611c8e565b80601f01602080910402602001604051908101604052809291908181526020018280546110d490611c8e565b80156111215780601f106110f657610100808354040283529160200191611121565b820191906000526020600020905b81548152906001019060200180831161110457829003601f168201915b50505050508152505090503373ffffffffffffffffffffffffffffffffffffffff166006826020015181548110611181577f4e487b7100000000000000000000000000000000000000000000000000000000600052603260045260246000fd5b906000526020600020906003020160010160009054906101000a900473ffffffffffffffffffffffffffffffffffffffff1673ffffffffffffffffffffffffffffffffffffffff16146111d357600080fd5b60016006826020015181548110611213577f4e487b7100000000000000000000000000000000000000000000000000000000600052603260045260246000fd5b906000526020600020906003020160010160146101000a81548160ff021916908315150217905550600160078381548110611277577f4e487b7100000000000000000000000000000000000000000000000000000000600052603260045260246000fd5b906000526020600020906004020160020160006101000a81548160ff021916908315150217905550600782815481106112d9577f4e487b7100000000000000000000000000000000000000000000000000000000600052603260045260246000fd5b906000526020600020906004020160020160019054906101000a900473ffffffffffffffffffffffffffffffffffffffff1673ffffffffffffffffffffffffffffffffffffffff166108fc662386f26fc100009081150290604051600060405180830381858888f19350505050158015611357573d6000803e3d6000fd5b505050565b6040518060600160405280600081526020013373ffffffffffffffffffffffffffffffffffffffff168152602001828152506005600254815481106113ca577f4e487b7100000000000000000000000000000000000000000000000000000000600052603260045260246000fd5b90600052602060002090600302016000820151816000015560208201518160010160006101000a81548173ffffffffffffffffffffffffffffffffffffffff021916908373ffffffffffffffffffffffffffffffffffffffff1602179055506040820151816002019080519060200190611445929190611628565b509050506002600081548092919061145c90611cf1565b919050555050565b61146c61155c565b73ffffffffffffffffffffffffffffffffffffffff1661148a610f95565b73ffffffffffffffffffffffffffffffffffffffff16146114e0576040517f08c379a00000000000000000000000000000000000000000000000000000000081526004016114d7906119cb565b60405180910390fd5b600073ffffffffffffffffffffffffffffffffffffffff168173ffffffffffffffffffffffffffffffffffffffff161415611550576040517f08c379a0000000000000000000000000000000000000000000000000000000008152600401611547906119ab565b60405180910390fd5b61155981611564565b50565b600033905090565b60008060009054906101000a900473ffffffffffffffffffffffffffffffffffffffff169050816000806101000a81548173ffffffffffffffffffffffffffffffffffffffff021916908373ffffffffffffffffffffffffffffffffffffffff1602179055508173ffffffffffffffffffffffffffffffffffffffff168173ffffffffffffffffffffffffffffffffffffffff167f8be0079c531659141344cd1fd0a4f28419497f9722a3daafe3b4186f6b6457e060405160405180910390a35050565b82805461163490611c8e565b90600052602060002090601f016020900481019282611656576000855561169d565b82601f1061166f57805160ff191683800117855561169d565b8280016001018555821561169d579182015b8281111561169c578251825591602001919060010190611681565b5b5090506116aa91906116ae565b5090565b5b808211156116c75760008160009055506001016116af565b5090565b60006116de6116d984611b4f565b611b2a565b9050828152602081018484840111156116f657600080fd5b611701848285611c4c565b509392505050565b60008135905061171881611ea2565b92915050565b600082601f83011261172f57600080fd5b813561173f8482602086016116cb565b91505092915050565b60008135905061175781611eb9565b92915050565b60006020828403121561176f57600080fd5b600061177d84828501611709565b91505092915050565b60006020828403121561179857600080fd5b600082013567ffffffffffffffff8111156117b257600080fd5b6117be8482850161171e565b91505092915050565b6000602082840312156117d957600080fd5b60006117e784828501611748565b91505092915050565b6000806040838503121561180357600080fd5b600061181185828601611748565b925050602083013567ffffffffffffffff81111561182e57600080fd5b61183a8582860161171e565b9150509250929050565b61184d81611c04565b82525050565b61185c81611bf2565b82525050565b61186b81611c16565b82525050565b600061187c82611b80565b6118868185611b8b565b9350611896818560208601611c5b565b61189f81611dc7565b840191505092915050565b60006118b7602683611b8b565b91506118c282611dd8565b604082019050919050565b60006118da602083611b8b565b91506118e582611e27565b602082019050919050565b60006118fd601383611b8b565b915061190882611e50565b602082019050919050565b6000611920601383611b8b565b915061192b82611e79565b602082019050919050565b61193f81611c42565b82525050565b600060208201905061195a6000830184611853565b92915050565b60006040820190506119756000830185611853565b81810360208301526119878184611871565b90509392505050565b60006020820190506119a56000830184611862565b92915050565b600060208201905081810360008301526119c4816118aa565b9050919050565b600060208201905081810360008301526119e4816118cd565b9050919050565b60006020820190508181036000830152611a04816118f0565b9050919050565b60006020820190508181036000830152611a2481611913565b9050919050565b6000602082019050611a406000830184611936565b92915050565b6000608082019050611a5b6000830187611936565b611a686020830186611853565b611a756040830185611862565b8181036060830152611a878184611871565b905095945050505050565b6000606082019050611aa76000830186611936565b611ab46020830185611853565b8181036040830152611ac68184611871565b9050949350505050565b600060a082019050611ae56000830188611936565b611af26020830187611936565b611aff6040830186611862565b611b0c6060830185611844565b8181036080830152611b1e8184611871565b90509695505050505050565b6000611b34611b45565b9050611b408282611cc0565b919050565b6000604051905090565b600067ffffffffffffffff821115611b6a57611b69611d98565b5b611b7382611dc7565b9050602081019050919050565b600081519050919050565b600082825260208201905092915050565b6000611ba782611c42565b9150611bb283611c42565b9250827fffffffffffffffffffffffffffffffffffffffffffffffffffffffffffffffff03821115611be757611be6611d3a565b5b828201905092915050565b6000611bfd82611c22565b9050919050565b6000611c0f82611c22565b9050919050565b60008115159050919050565b600073ffffffffffffffffffffffffffffffffffffffff82169050919050565b6000819050919050565b82818337600083830152505050565b60005b83811015611c79578082015181840152602081019050611c5e565b83811115611c88576000848401525b50505050565b60006002820490506001821680611ca657607f821691505b60208210811415611cba57611cb9611d69565b5b50919050565b611cc982611dc7565b810181811067ffffffffffffffff82111715611ce857611ce7611d98565b5b80604052505050565b6000611cfc82611c42565b91507fffffffffffffffffffffffffffffffffffffffffffffffffffffffffffffffff821415611d2f57611d2e611d3a565b5b600182019050919050565b7f4e487b7100000000000000000000000000000000000000000000000000000000600052601160045260246000fd5b7f4e487b7100000000000000000000000000000000000000000000000000000000600052602260045260246000fd5b7f4e487b7100000000000000000000000000000000000000000000000000000000600052604160045260246000fd5b6000601f19601f8301169050919050565b7f4f776e61626c653a206e6577206f776e657220697320746865207a65726f206160008201527f6464726573730000000000000000000000000000000000000000000000000000602082015250565b7f4f776e61626c653a2063616c6c6572206973206e6f7420746865206f776e6572600082015250565b7f496e73756666696369656e7420616d6f756e7400000000000000000000000000600082015250565b7f4e6f742072656769737465726564207573657200000000000000000000000000600082015250565b611eab81611bf2565b8114611eb657600080fd5b50565b611ec281611c42565b8114611ecd57600080fd5b5056fea26469706673582212208a7786b89e1149603c74ac365ece2d7e7c0df5e4b8bc0f64d327ee717e1053bb64736f6c63430008020033",
  "immutableReferences": {},
  "source": "// SPDX-License-Identifier: MIT\r\npragma solidity >=0.4.22 <0.9.0;\r\n\r\nimport \"@openzeppelin/contracts/access/Ownable.sol\";\r\n\r\ninterface INFTContract {\r\n  function safeMint(address to, string memory uri) external;\r\n}\r\n\r\ncontract CryptoStackMain is Ownable {\r\n\r\n  address NFTContractAddress;\r\n\r\n  uint public userCount;\r\n  uint public questionCount;\r\n  uint public answerCount;\r\n\r\n  struct User{\r\n    uint userPoints;\r\n    address userAddress;\r\n    string userName;\r\n  }\r\n\r\n  struct Question{\r\n    uint id;\r\n    address questionaireAddress;\r\n    bool isAnswered;\r\n    string questionString;\r\n  }\r\n\r\n  struct Answer{\r\n    uint id;\r\n    uint questionId;\r\n    bool isAccepted;\r\n    address payable replierAddress;\r\n    string answerString;\r\n  }\r\n  \r\n  User[] public users;\r\n  Question[] public questions;\r\n  Answer[] public answers;\r\n\r\n  function isRegisteredUser(address _user) public view returns(bool) {\r\n    bool registeredUser;\r\n    for (uint i = 0; i < userCount; ++i) {\r\n      if (users[i].userAddress == _user) {\r\n        registeredUser = true;\r\n      }\r\n    }\r\n    return registeredUser;\r\n  }\r\n\r\n  function isFrequentContributor(address _user) public view returns(bool) {\r\n    bool frequentContributor;\r\n    for (uint i = 0; i < userCount; ++i) {\r\n      if (users[i].userAddress == _user && users[i].userPoints > 100) {\r\n        frequentContributor = true;\r\n      }\r\n    }\r\n    return frequentContributor;\r\n  }\r\n\r\n  function setNFTContractAddress(address _NFTContractAddress) external onlyOwner {\r\n    NFTContractAddress = _NFTContractAddress;\r\n  }\r\n\r\n  function registerNewUser(string memory _userName ) external {\r\n    users[userCount] = User(0, msg.sender, _userName );\r\n    userCount++;\r\n  }\r\n\r\n  function createNewQuestion(string memory _questionString) external {\r\n    require(isRegisteredUser(msg.sender), \"Not registered user\");\r\n    questions[questionCount] = Question(questionCount, msg.sender, false , _questionString);\r\n    questionCount++;\r\n  }\r\n\r\n  function answerQuestion( uint _questionId, string memory _answerString) external {\r\n    require(isRegisteredUser(msg.sender), \"Not registered user\");\r\n    answers[answerCount] = Answer(answerCount, _questionId, false, payable(msg.sender), _answerString);\r\n    for (uint i = 0; i < userCount; ++i) {\r\n      if (users[i].userAddress == msg.sender) {\r\n        users[i].userPoints += 10;\r\n      }\r\n    }\r\n    answerCount++;\r\n  }\r\n  \r\n  function acceptAnswer(uint _answerId) external {\r\n    Answer memory answer = answers[_answerId];\r\n    require(questions[answer.questionId].questionaireAddress == msg.sender);\r\n    questions[answer.questionId].isAnswered = true;\r\n    answers[_answerId].isAccepted = true;\r\n    payable(answers[_answerId].replierAddress).transfer(0.01 ether);\r\n  }\r\n\r\n  function payToMint(string memory _uri) external payable {\r\n    if (isFrequentContributor(msg.sender)) {\r\n      require(msg.value >= 0.05 ether, \"Insufficient amount\");\r\n    } else {\r\n      require(msg.value >= 0.1 ether, \"Insufficient amount\"); \r\n    }\r\n    INFTContract(NFTContractAddress).safeMint(msg.sender, _uri);\r\n  }\r\n}",
  "sourcePath": "D:/Hackathons/Devfolio online/ByteSynergy/project/CryptoStack/truffle/contracts/CryptoStackMain.sol",
  "compiler": {
    "name": "solc",
    "version": "0.8.2+commit.661d1103.Emscripten.clang"
  },
  "schemaVersion": "3.4.1",
  "updatedAt": "2022-02-12T10:51:46.787Z",
  "devdoc": {
    "kind": "dev",
    "methods": {
      "owner()": {
        "details": "Returns the address of the current owner."
      },
      "renounceOwnership()": {
        "details": "Leaves the contract without owner. It will not be possible to call `onlyOwner` functions anymore. Can only be called by the current owner. NOTE: Renouncing ownership will leave the contract without an owner, thereby removing any functionality that is only available to the owner."
      },
      "transferOwnership(address)": {
        "details": "Transfers ownership of the contract to a new account (`newOwner`). Can only be called by the current owner."
      }
    },
    "version": 1
  },
  "userdoc": {
    "kind": "user",
    "methods": {},
    "version": 1
  }
}