{
  "contractName": "CryptoStackMain",
  "abi": [
    {
      "inputs": [],
      "stateMutability": "nonpayable",
      "type": "constructor"
    },
    {
      "inputs": [],
      "name": "answerCount",
      "outputs": [
        {
          "internalType": "uint256",
          "name": "",
          "type": "uint256"
        }
      ],
      "stateMutability": "view",
      "type": "function"
    },
    {
      "inputs": [
        {
          "internalType": "uint256",
          "name": "",
          "type": "uint256"
        }
      ],
      "name": "answers",
      "outputs": [
        {
          "internalType": "uint256",
          "name": "id",
          "type": "uint256"
        },
        {
          "internalType": "uint256",
          "name": "questionId",
          "type": "uint256"
        },
        {
          "internalType": "bool",
          "name": "isAccepted",
          "type": "bool"
        },
        {
          "internalType": "address payable",
          "name": "replierAddress",
          "type": "address"
        },
        {
          "internalType": "string",
          "name": "answerString",
          "type": "string"
        }
      ],
      "stateMutability": "view",
      "type": "function"
    },
    {
      "inputs": [],
      "name": "questionCount",
      "outputs": [
        {
          "internalType": "uint256",
          "name": "",
          "type": "uint256"
        }
      ],
      "stateMutability": "view",
      "type": "function"
    },
    {
      "inputs": [
        {
          "internalType": "uint256",
          "name": "",
          "type": "uint256"
        }
      ],
      "name": "questions",
      "outputs": [
        {
          "internalType": "uint256",
          "name": "id",
          "type": "uint256"
        },
        {
          "internalType": "address",
          "name": "questionaireAddress",
          "type": "address"
        },
        {
          "internalType": "bool",
          "name": "isAnswered",
          "type": "bool"
        },
        {
          "internalType": "string",
          "name": "questionString",
          "type": "string"
        }
      ],
      "stateMutability": "view",
      "type": "function"
    },
    {
      "inputs": [],
      "name": "userCount",
      "outputs": [
        {
          "internalType": "uint256",
          "name": "",
          "type": "uint256"
        }
      ],
      "stateMutability": "view",
      "type": "function"
    },
    {
      "inputs": [
        {
          "internalType": "uint256",
          "name": "",
          "type": "uint256"
        }
      ],
      "name": "users",
      "outputs": [
        {
          "internalType": "uint256",
          "name": "userPoints",
          "type": "uint256"
        },
        {
          "internalType": "address",
          "name": "userAddress",
          "type": "address"
        },
        {
          "internalType": "string",
          "name": "userName",
          "type": "string"
        }
      ],
      "stateMutability": "view",
      "type": "function"
    },
    {
      "inputs": [
        {
          "internalType": "string",
          "name": "_userName",
          "type": "string"
        }
      ],
      "name": "registerNewUser",
      "outputs": [],
      "stateMutability": "nonpayable",
      "type": "function"
    },
    {
      "inputs": [
        {
          "internalType": "string",
          "name": "_questionString",
          "type": "string"
        }
      ],
      "name": "createNewQuestion",
      "outputs": [],
      "stateMutability": "nonpayable",
      "type": "function"
    },
    {
      "inputs": [
        {
          "internalType": "uint256",
          "name": "_questionId",
          "type": "uint256"
        },
        {
          "internalType": "string",
          "name": "_answerString",
          "type": "string"
        }
      ],
      "name": "answerQuestion",
      "outputs": [],
      "stateMutability": "nonpayable",
      "type": "function"
    },
    {
      "inputs": [
        {
          "internalType": "uint256",
          "name": "_answerId",
          "type": "uint256"
        }
      ],
      "name": "acceptAnswer",
      "outputs": [],
      "stateMutability": "nonpayable",
      "type": "function"
    }
  ],
  "bytecode": "0x608060405234801561001057600080fd5b506111fb806100206000396000f3fe608060405234801561001057600080fd5b506004361061009e5760003560e01c806331b1b9781161006657806331b1b9781461014d578063365b98b214610180578063447e52a0146101b2578063986bd4c9146101ce578063995ac4fd146101ea5761009e565b806307973ccf146100a35780630aab0b54146100c15780630bed0502146100dd5780631468aa2c146100fb57806317599cc514610119575b600080fd5b6100ab610206565b6040516100b89190610e57565b60405180910390f35b6100db60048036038101906100d69190610d24565b61020c565b005b6100e561033e565b6040516100f29190610e57565b60405180910390f35b610103610344565b6040516101109190610e57565b60405180910390f35b610133600480360381019061012e9190610d65565b61034a565b604051610144959493929190610efc565b60405180910390f35b61016760048036038101906101629190610d65565b610445565b6040516101779493929190610e72565b60405180910390f35b61019a60048036038101906101959190610d65565b61053a565b6040516101a993929190610ebe565b60405180910390f35b6101cc60048036038101906101c79190610d8e565b61061c565b005b6101e860048036038101906101e39190610d65565b61075f565b005b61020460048036038101906101ff9190610d24565b610afd565b005b60005481565b604051806080016040528060015481526020013373ffffffffffffffffffffffffffffffffffffffff16815260200160001515815260200182815250600460015481548110610284577f4e487b7100000000000000000000000000000000000000000000000000000000600052603260045260246000fd5b90600052602060002090600302016000820151816000015560208201518160010160006101000a81548173ffffffffffffffffffffffffffffffffffffffff021916908373ffffffffffffffffffffffffffffffffffffffff16021790555060408201518160010160146101000a81548160ff021916908315150217905550606082015181600201908051906020019061031f929190610c04565b5090505060016000815480929190610336906110c7565b919050555050565b60025481565b60015481565b6005818154811061035a57600080fd5b90600052602060002090600402016000915090508060000154908060010154908060020160009054906101000a900460ff16908060020160019054906101000a900473ffffffffffffffffffffffffffffffffffffffff16908060030180546103c290611064565b80601f01602080910402602001604051908101604052809291908181526020018280546103ee90611064565b801561043b5780601f106104105761010080835404028352916020019161043b565b820191906000526020600020905b81548152906001019060200180831161041e57829003601f168201915b5050505050905085565b6004818154811061045557600080fd5b90600052602060002090600302016000915090508060000154908060010160009054906101000a900473ffffffffffffffffffffffffffffffffffffffff16908060010160149054906101000a900460ff16908060020180546104b790611064565b80601f01602080910402602001604051908101604052809291908181526020018280546104e390611064565b80156105305780601f1061050557610100808354040283529160200191610530565b820191906000526020600020905b81548152906001019060200180831161051357829003601f168201915b5050505050905084565b6003818154811061054a57600080fd5b90600052602060002090600302016000915090508060000154908060010160009054906101000a900473ffffffffffffffffffffffffffffffffffffffff169080600201805461059990611064565b80601f01602080910402602001604051908101604052809291908181526020018280546105c590611064565b80156106125780601f106105e757610100808354040283529160200191610612565b820191906000526020600020905b8154815290600101906020018083116105f557829003601f168201915b5050505050905083565b6040518060a0016040528060025481526020018381526020016000151581526020013373ffffffffffffffffffffffffffffffffffffffff1681526020018281525060056002548154811061069a577f4e487b7100000000000000000000000000000000000000000000000000000000600052603260045260246000fd5b9060005260206000209060040201600082015181600001556020820151816001015560408201518160020160006101000a81548160ff02191690831515021790555060608201518160020160016101000a81548173ffffffffffffffffffffffffffffffffffffffff021916908373ffffffffffffffffffffffffffffffffffffffff160217905550608082015181600301908051906020019061073f929190610c04565b5090505060026000815480929190610756906110c7565b91905055505050565b60006005828154811061079b577f4e487b7100000000000000000000000000000000000000000000000000000000600052603260045260246000fd5b90600052602060002090600402016040518060a001604052908160008201548152602001600182015481526020016002820160009054906101000a900460ff161515151581526020016002820160019054906101000a900473ffffffffffffffffffffffffffffffffffffffff1673ffffffffffffffffffffffffffffffffffffffff1673ffffffffffffffffffffffffffffffffffffffff16815260200160038201805461084990611064565b80601f016020809104026020016040519081016040528092919081815260200182805461087590611064565b80156108c25780601f10610897576101008083540402835291602001916108c2565b820191906000526020600020905b8154815290600101906020018083116108a557829003601f168201915b50505050508152505090503373ffffffffffffffffffffffffffffffffffffffff166004826020015181548110610922577f4e487b7100000000000000000000000000000000000000000000000000000000600052603260045260246000fd5b906000526020600020906003020160010160009054906101000a900473ffffffffffffffffffffffffffffffffffffffff1673ffffffffffffffffffffffffffffffffffffffff161461097457600080fd5b600160048260200151815481106109b4577f4e487b7100000000000000000000000000000000000000000000000000000000600052603260045260246000fd5b906000526020600020906003020160010160146101000a81548160ff021916908315150217905550600160058381548110610a18577f4e487b7100000000000000000000000000000000000000000000000000000000600052603260045260246000fd5b906000526020600020906004020160020160006101000a81548160ff02191690831515021790555060058281548110610a7a577f4e487b7100000000000000000000000000000000000000000000000000000000600052603260045260246000fd5b906000526020600020906004020160020160019054906101000a900473ffffffffffffffffffffffffffffffffffffffff1673ffffffffffffffffffffffffffffffffffffffff166108fc662386f26fc100009081150290604051600060405180830381858888f19350505050158015610af8573d6000803e3d6000fd5b505050565b6040518060600160405280600081526020013373ffffffffffffffffffffffffffffffffffffffff16815260200182815250600360005481548110610b6b577f4e487b7100000000000000000000000000000000000000000000000000000000600052603260045260246000fd5b90600052602060002090600302016000820151816000015560208201518160010160006101000a81548173ffffffffffffffffffffffffffffffffffffffff021916908373ffffffffffffffffffffffffffffffffffffffff1602179055506040820151816002019080519060200190610be6929190610c04565b50905050600080815480929190610bfc906110c7565b919050555050565b828054610c1090611064565b90600052602060002090601f016020900481019282610c325760008555610c79565b82601f10610c4b57805160ff1916838001178555610c79565b82800160010185558215610c79579182015b82811115610c78578251825591602001919060010190610c5d565b5b509050610c869190610c8a565b5090565b5b80821115610ca3576000816000905550600101610c8b565b5090565b6000610cba610cb584610f7b565b610f56565b905082815260208101848484011115610cd257600080fd5b610cdd848285611022565b509392505050565b600082601f830112610cf657600080fd5b8135610d06848260208601610ca7565b91505092915050565b600081359050610d1e816111ae565b92915050565b600060208284031215610d3657600080fd5b600082013567ffffffffffffffff811115610d5057600080fd5b610d5c84828501610ce5565b91505092915050565b600060208284031215610d7757600080fd5b6000610d8584828501610d0f565b91505092915050565b60008060408385031215610da157600080fd5b6000610daf85828601610d0f565b925050602083013567ffffffffffffffff811115610dcc57600080fd5b610dd885828601610ce5565b9150509250929050565b610deb81610fda565b82525050565b610dfa81610fc8565b82525050565b610e0981610fec565b82525050565b6000610e1a82610fac565b610e248185610fb7565b9350610e34818560208601611031565b610e3d8161119d565b840191505092915050565b610e5181611018565b82525050565b6000602082019050610e6c6000830184610e48565b92915050565b6000608082019050610e876000830187610e48565b610e946020830186610df1565b610ea16040830185610e00565b8181036060830152610eb38184610e0f565b905095945050505050565b6000606082019050610ed36000830186610e48565b610ee06020830185610df1565b8181036040830152610ef28184610e0f565b9050949350505050565b600060a082019050610f116000830188610e48565b610f1e6020830187610e48565b610f2b6040830186610e00565b610f386060830185610de2565b8181036080830152610f4a8184610e0f565b90509695505050505050565b6000610f60610f71565b9050610f6c8282611096565b919050565b6000604051905090565b600067ffffffffffffffff821115610f9657610f9561116e565b5b610f9f8261119d565b9050602081019050919050565b600081519050919050565b600082825260208201905092915050565b6000610fd382610ff8565b9050919050565b6000610fe582610ff8565b9050919050565b60008115159050919050565b600073ffffffffffffffffffffffffffffffffffffffff82169050919050565b6000819050919050565b82818337600083830152505050565b60005b8381101561104f578082015181840152602081019050611034565b8381111561105e576000848401525b50505050565b6000600282049050600182168061107c57607f821691505b602082108114156110905761108f61113f565b5b50919050565b61109f8261119d565b810181811067ffffffffffffffff821117156110be576110bd61116e565b5b80604052505050565b60006110d282611018565b91507fffffffffffffffffffffffffffffffffffffffffffffffffffffffffffffffff82141561110557611104611110565b5b600182019050919050565b7f4e487b7100000000000000000000000000000000000000000000000000000000600052601160045260246000fd5b7f4e487b7100000000000000000000000000000000000000000000000000000000600052602260045260246000fd5b7f4e487b7100000000000000000000000000000000000000000000000000000000600052604160045260246000fd5b6000601f19601f8301169050919050565b6111b781611018565b81146111c257600080fd5b5056fea2646970667358221220bc8d991ed85c89542344b5e8b0c9f485b90b200d7f3f6badc0bf17d0c5b278ce64736f6c63430008020033",
  "immutableReferences": {},
  "source": "// SPDX-License-Identifier: MIT\r\npragma solidity >=0.4.22 <0.9.0;\r\n\r\ncontract CryptoStackMain {\r\n  constructor() {\r\n    \r\n  }\r\n  struct User{\r\n    uint userPoints;\r\n    address userAddress;\r\n    string userName;\r\n\r\n  }\r\n  struct Question{\r\n    uint id;\r\n    address questionaireAddress;\r\n    bool isAnswered;\r\n    string questionString;\r\n  }\r\n  struct Answer{\r\n    uint id;\r\n    uint questionId;\r\n    bool isAccepted;\r\n    address payable replierAddress;\r\n    string answerString;\r\n  }\r\n  uint public userCount;\r\n  uint public questionCount;\r\n  uint public answerCount;\r\n  User[] public users;\r\n  Question[] public questions;\r\n  Answer[] public answers;\r\n\r\n  function registerNewUser(string memory _userName ) external {\r\n     users[userCount] = User(0, msg.sender, _userName );\r\n      userCount++;\r\n  }\r\n\r\n  function createNewQuestion(string memory _questionString) external {\r\n      questions[questionCount] = Question(questionCount, msg.sender, false , _questionString);\r\n      questionCount++;\r\n  }\r\n\r\n  function answerQuestion( uint _questionId,string memory _answerString) external {\r\n      answers[answerCount] = Answer(answerCount, _questionId, false, payable(msg.sender), _answerString);\r\n      answerCount++;\r\n  }\r\n  \r\n  function acceptAnswer(uint _answerId) external {\r\n      Answer memory answer = answers[_answerId];\r\n      require(questions[answer.questionId].questionaireAddress == msg.sender);\r\n      questions[answer.questionId].isAnswered = true;\r\n      answers[_answerId].isAccepted = true;\r\n      payable(answers[_answerId].replierAddress).transfer(0.01 ether);\r\n\r\n  }\r\n}\r\n",
  "sourcePath": "E:\\New folder\\CryptoStack\\truffle\\contracts\\CryptoStackMain.sol",
  "compiler": {
    "name": "solc",
    "version": "0.8.2+commit.661d1103.Emscripten.clang"
  },
  "schemaVersion": "3.4.3",
  "updatedAt": "2022-02-12T09:38:11.393Z",
  "devdoc": {
    "kind": "dev",
    "methods": {},
    "version": 1
  },
  "userdoc": {
    "kind": "user",
    "methods": {},
    "version": 1
  }
}