{
  "contractName": "CryptoStackMain",
  "abi": [
    {
      "anonymous": false,
      "inputs": [
        {
          "indexed": true,
          "internalType": "address",
          "name": "previousOwner",
          "type": "address"
        },
        {
          "indexed": true,
          "internalType": "address",
          "name": "newOwner",
          "type": "address"
        }
      ],
      "name": "OwnershipTransferred",
      "type": "event"
    },
    {
      "anonymous": false,
      "inputs": [
        {
          "indexed": false,
          "internalType": "uint256",
          "name": "",
          "type": "uint256"
        },
        {
          "indexed": false,
          "internalType": "uint256",
          "name": "",
          "type": "uint256"
        }
      ],
      "name": "acceptedAnswer",
      "type": "event"
    },
    {
      "anonymous": false,
      "inputs": [
        {
          "indexed": false,
          "internalType": "uint256",
          "name": "",
          "type": "uint256"
        },
        {
          "indexed": false,
          "internalType": "uint256",
          "name": "",
          "type": "uint256"
        },
        {
          "indexed": false,
          "internalType": "address",
          "name": "",
          "type": "address"
        }
      ],
      "name": "answeredQuestion",
      "type": "event"
    },
    {
      "anonymous": false,
      "inputs": [
        {
          "indexed": false,
          "internalType": "uint256",
          "name": "",
          "type": "uint256"
        },
        {
          "indexed": false,
          "internalType": "address",
          "name": "",
          "type": "address"
        }
      ],
      "name": "createdNewQuestion",
      "type": "event"
    },
    {
      "anonymous": false,
      "inputs": [
        {
          "indexed": false,
          "internalType": "address",
          "name": "",
          "type": "address"
        }
      ],
      "name": "purchasedNFT",
      "type": "event"
    },
    {
      "anonymous": false,
      "inputs": [
        {
          "indexed": false,
          "internalType": "address",
          "name": "",
          "type": "address"
        }
      ],
      "name": "registeredNewUser",
      "type": "event"
    },
    {
      "inputs": [],
      "name": "answerCount",
      "outputs": [
        {
          "internalType": "uint256",
          "name": "",
          "type": "uint256"
        }
      ],
      "stateMutability": "view",
      "type": "function",
      "constant": true
    },
    {
      "inputs": [
        {
          "internalType": "uint256",
          "name": "",
          "type": "uint256"
        }
      ],
      "name": "answers",
      "outputs": [
        {
          "internalType": "uint256",
          "name": "id",
          "type": "uint256"
        },
        {
          "internalType": "uint256",
          "name": "questionId",
          "type": "uint256"
        },
        {
          "internalType": "bool",
          "name": "isAccepted",
          "type": "bool"
        },
        {
          "internalType": "address payable",
          "name": "replierAddress",
          "type": "address"
        },
        {
          "internalType": "string",
          "name": "answerString",
          "type": "string"
        }
      ],
      "stateMutability": "view",
      "type": "function",
      "constant": true
    },
    {
      "inputs": [],
      "name": "owner",
      "outputs": [
        {
          "internalType": "address",
          "name": "",
          "type": "address"
        }
      ],
      "stateMutability": "view",
      "type": "function",
      "constant": true
    },
    {
      "inputs": [],
      "name": "questionCount",
      "outputs": [
        {
          "internalType": "uint256",
          "name": "",
          "type": "uint256"
        }
      ],
      "stateMutability": "view",
      "type": "function",
      "constant": true
    },
    {
      "inputs": [
        {
          "internalType": "uint256",
          "name": "",
          "type": "uint256"
        }
      ],
      "name": "questions",
      "outputs": [
        {
          "internalType": "uint256",
          "name": "id",
          "type": "uint256"
        },
        {
          "internalType": "address",
          "name": "questionaireAddress",
          "type": "address"
        },
        {
          "internalType": "bool",
          "name": "isAnswered",
          "type": "bool"
        },
        {
          "internalType": "string",
          "name": "questionString",
          "type": "string"
        }
      ],
      "stateMutability": "view",
      "type": "function",
      "constant": true
    },
    {
      "inputs": [],
      "name": "renounceOwnership",
      "outputs": [],
      "stateMutability": "nonpayable",
      "type": "function"
    },
    {
      "inputs": [
        {
          "internalType": "address",
          "name": "newOwner",
          "type": "address"
        }
      ],
      "name": "transferOwnership",
      "outputs": [],
      "stateMutability": "nonpayable",
      "type": "function"
    },
    {
      "inputs": [],
      "name": "userCount",
      "outputs": [
        {
          "internalType": "uint256",
          "name": "",
          "type": "uint256"
        }
      ],
      "stateMutability": "view",
      "type": "function",
      "constant": true
    },
    {
      "inputs": [
        {
          "internalType": "uint256",
          "name": "",
          "type": "uint256"
        }
      ],
      "name": "users",
      "outputs": [
        {
          "internalType": "uint256",
          "name": "userPoints",
          "type": "uint256"
        },
        {
          "internalType": "address",
          "name": "userAddress",
          "type": "address"
        },
        {
          "internalType": "string",
          "name": "userName",
          "type": "string"
        }
      ],
      "stateMutability": "view",
      "type": "function",
      "constant": true
    },
    {
      "inputs": [
        {
          "internalType": "address",
          "name": "_user",
          "type": "address"
        }
      ],
      "name": "isRegisteredUser",
      "outputs": [
        {
          "internalType": "bool",
          "name": "",
          "type": "bool"
        }
      ],
      "stateMutability": "view",
      "type": "function",
      "constant": true
    },
    {
      "inputs": [
        {
          "internalType": "address",
          "name": "_user",
          "type": "address"
        }
      ],
      "name": "isFrequentContributor",
      "outputs": [
        {
          "internalType": "bool",
          "name": "",
          "type": "bool"
        }
      ],
      "stateMutability": "view",
      "type": "function",
      "constant": true
    },
    {
      "inputs": [
        {
          "internalType": "address",
          "name": "_NFTContractAddress",
          "type": "address"
        }
      ],
      "name": "setNFTContractAddress",
      "outputs": [],
      "stateMutability": "nonpayable",
      "type": "function"
    },
    {
      "inputs": [
        {
          "internalType": "string",
          "name": "_userName",
          "type": "string"
        }
      ],
      "name": "registerNewUser",
      "outputs": [],
      "stateMutability": "nonpayable",
      "type": "function"
    },
    {
      "inputs": [
        {
          "internalType": "string",
          "name": "_questionString",
          "type": "string"
        }
      ],
      "name": "createNewQuestion",
      "outputs": [],
      "stateMutability": "nonpayable",
      "type": "function"
    },
    {
      "inputs": [
        {
          "internalType": "uint256",
          "name": "_questionId",
          "type": "uint256"
        },
        {
          "internalType": "string",
          "name": "_answerString",
          "type": "string"
        }
      ],
      "name": "answerQuestion",
      "outputs": [],
      "stateMutability": "nonpayable",
      "type": "function"
    },
    {
      "inputs": [
        {
          "internalType": "uint256",
          "name": "_answerId",
          "type": "uint256"
        }
      ],
      "name": "acceptAnswer",
      "outputs": [],
      "stateMutability": "nonpayable",
      "type": "function"
    },
    {
      "inputs": [
        {
          "internalType": "string",
          "name": "_uri",
          "type": "string"
        }
      ],
      "name": "payToMint",
      "outputs": [],
      "stateMutability": "payable",
      "type": "function",
      "payable": true
    }
  ],
  "bytecode": "0x608060405234801561001057600080fd5b5061002d61002261003260201b60201c565b61003a60201b60201c565b6100fe565b600033905090565b60008060009054906101000a900473ffffffffffffffffffffffffffffffffffffffff169050816000806101000a81548173ffffffffffffffffffffffffffffffffffffffff021916908373ffffffffffffffffffffffffffffffffffffffff1602179055508173ffffffffffffffffffffffffffffffffffffffff168173ffffffffffffffffffffffffffffffffffffffff167f8be0079c531659141344cd1fd0a4f28419497f9722a3daafe3b4186f6b6457e060405160405180910390a35050565b6121a9806200010e6000396000f3fe6080604052600436106100fe5760003560e01c8063365b98b211610095578063715018a611610064578063715018a6146103555780638da5cb5b1461036c578063986bd4c914610397578063995ac4fd146103c0578063f2fde38b146103e9576100fe565b8063365b98b214610294578063447e52a0146102d3578063537efe31146102fc5780635a89bf1414610318576100fe565b806317599cc5116100d157806317599cc5146101ad5780631f5bdf5d146101ee57806323949cd11461022b57806331b1b97814610254576100fe565b806307973ccf146101035780630aab0b541461012e5780630bed0502146101575780631468aa2c14610182575b600080fd5b34801561010f57600080fd5b50610118610412565b6040516101259190611bf3565b60405180910390f35b34801561013a57600080fd5b50610155600480360381019061015091906118c8565b610418565b005b34801561016357600080fd5b5061016c6105ad565b6040516101799190611bf3565b60405180910390f35b34801561018e57600080fd5b506101976105b3565b6040516101a49190611bf3565b60405180910390f35b3480156101b957600080fd5b506101d460048036038101906101cf9190611909565b6105b9565b6040516101e5959493929190611d21565b60405180910390f35b3480156101fa57600080fd5b506102156004803603810190610210919061189f565b6106b4565b6040516102229190611b18565b60405180910390f35b34801561023757600080fd5b50610252600480360381019061024d919061189f565b610783565b005b34801561026057600080fd5b5061027b60048036038101906102769190611909565b610843565b60405161028b9493929190611c37565b60405180910390f35b3480156102a057600080fd5b506102bb60048036038101906102b69190611909565b610938565b6040516102ca93929190611c83565b60405180910390f35b3480156102df57600080fd5b506102fa60048036038101906102f59190611932565b610a1a565b005b610316600480360381019061031191906118c8565b610ce4565b005b34801561032457600080fd5b5061033f600480360381019061033a919061189f565b610e56565b60405161034c9190611b18565b60405180910390f35b34801561036157600080fd5b5061036a610f7c565b005b34801561037857600080fd5b50610381611004565b60405161038e9190611acd565b60405180910390f35b3480156103a357600080fd5b506103be60048036038101906103b99190611909565b61102d565b005b3480156103cc57600080fd5b506103e760048036038101906103e291906118c8565b61143e565b005b3480156103f557600080fd5b50610410600480360381019061040b919061189f565b6115a6565b005b60025481565b610421336106b4565b610460576040517f08c379a000000000000000000000000000000000000000000000000000000000815260040161045790611bd3565b60405180910390fd5b6006604051806080016040528060035481526020013373ffffffffffffffffffffffffffffffffffffffff1681526020016000151581526020018381525090806001815401808255809150506001900390600052602060002090600302016000909190919091506000820151816000015560208201518160010160006101000a81548173ffffffffffffffffffffffffffffffffffffffff021916908373ffffffffffffffffffffffffffffffffffffffff16021790555060408201518160010160146101000a81548160ff021916908315150217905550606082015181600201908051906020019061055492919061176a565b5050507f1c9d4d5acc39059348ae8d12af7ebbe15bed6f48123de8056708216d41b399c26003543360405161058a929190611c0e565b60405180910390a1600360008154809291906105a590611f42565b919050555050565b60045481565b60035481565b600781815481106105c957600080fd5b90600052602060002090600402016000915090508060000154908060010154908060020160009054906101000a900460ff16908060020160019054906101000a900473ffffffffffffffffffffffffffffffffffffffff169080600301805461063190611edf565b80601f016020809104026020016040519081016040528092919081815260200182805461065d90611edf565b80156106aa5780601f1061067f576101008083540402835291602001916106aa565b820191906000526020600020905b81548152906001019060200180831161068d57829003601f168201915b5050505050905085565b60008060005b600254811015610779578373ffffffffffffffffffffffffffffffffffffffff1660058281548110610715577f4e487b7100000000000000000000000000000000000000000000000000000000600052603260045260246000fd5b906000526020600020906003020160010160009054906101000a900473ffffffffffffffffffffffffffffffffffffffff1673ffffffffffffffffffffffffffffffffffffffff16141561076857600191505b8061077290611f42565b90506106ba565b5080915050919050565b61078b61169e565b73ffffffffffffffffffffffffffffffffffffffff166107a9611004565b73ffffffffffffffffffffffffffffffffffffffff16146107ff576040517f08c379a00000000000000000000000000000000000000000000000000000000081526004016107f690611b73565b60405180910390fd5b80600160006101000a81548173ffffffffffffffffffffffffffffffffffffffff021916908373ffffffffffffffffffffffffffffffffffffffff16021790555050565b6006818154811061085357600080fd5b90600052602060002090600302016000915090508060000154908060010160009054906101000a900473ffffffffffffffffffffffffffffffffffffffff16908060010160149054906101000a900460ff16908060020180546108b590611edf565b80601f01602080910402602001604051908101604052809291908181526020018280546108e190611edf565b801561092e5780601f106109035761010080835404028352916020019161092e565b820191906000526020600020905b81548152906001019060200180831161091157829003601f168201915b5050505050905084565b6005818154811061094857600080fd5b90600052602060002090600302016000915090508060000154908060010160009054906101000a900473ffffffffffffffffffffffffffffffffffffffff169080600201805461099790611edf565b80601f01602080910402602001604051908101604052809291908181526020018280546109c390611edf565b8015610a105780601f106109e557610100808354040283529160200191610a10565b820191906000526020600020905b8154815290600101906020018083116109f357829003601f168201915b5050505050905083565b610a23336106b4565b610a62576040517f08c379a0000000000000000000000000000000000000000000000000000000008152600401610a5990611bd3565b60405180910390fd5b60076040518060a0016040528060045481526020018481526020016000151581526020013373ffffffffffffffffffffffffffffffffffffffff168152602001838152509080600181540180825580915050600190039060005260206000209060040201600090919091909150600082015181600001556020820151816001015560408201518160020160006101000a81548160ff02191690831515021790555060608201518160020160016101000a81548173ffffffffffffffffffffffffffffffffffffffff021916908373ffffffffffffffffffffffffffffffffffffffff1602179055506080820151816003019080519060200190610b6692919061176a565b50505060005b600254811015610c8a573373ffffffffffffffffffffffffffffffffffffffff1660058281548110610bc7577f4e487b7100000000000000000000000000000000000000000000000000000000600052603260045260246000fd5b906000526020600020906003020160010160009054906101000a900473ffffffffffffffffffffffffffffffffffffffff1673ffffffffffffffffffffffffffffffffffffffff161415610c7957600a60058281548110610c51577f4e487b7100000000000000000000000000000000000000000000000000000000600052603260045260246000fd5b90600052602060002090600302016000016000828254610c719190611ded565b925050819055505b80610c8390611f42565b9050610b6c565b507f8792ee5f07165cbd0d40e9ce0ec9b99b47dbaca1355ae1334f106c40299f5eaf8260045433604051610cc093929190611cea565b60405180910390a160046000815480929190610cdb90611f42565b91905055505050565b610ced33610e56565b15610d415766b1a2bc2ec50000341015610d3c576040517f08c379a0000000000000000000000000000000000000000000000000000000008152600401610d3390611b93565b60405180910390fd5b610d8d565b67016345785d8a0000341015610d8c576040517f08c379a0000000000000000000000000000000000000000000000000000000008152600401610d8390611b93565b60405180910390fd5b5b600160009054906101000a900473ffffffffffffffffffffffffffffffffffffffff1673ffffffffffffffffffffffffffffffffffffffff1663d204c45e33836040518363ffffffff1660e01b8152600401610dea929190611ae8565b600060405180830381600087803b158015610e0457600080fd5b505af1158015610e18573d6000803e3d6000fd5b505050507fef587c1b3dc5eca8f362267459e4b09178edaf9a8d4443669581c5df39d848c433604051610e4b9190611acd565b60405180910390a150565b60008060005b600254811015610f72578373ffffffffffffffffffffffffffffffffffffffff1660058281548110610eb7577f4e487b7100000000000000000000000000000000000000000000000000000000600052603260045260246000fd5b906000526020600020906003020160010160009054906101000a900473ffffffffffffffffffffffffffffffffffffffff1673ffffffffffffffffffffffffffffffffffffffff16148015610f575750606460058281548110610f43577f4e487b7100000000000000000000000000000000000000000000000000000000600052603260045260246000fd5b906000526020600020906003020160000154115b15610f6157600191505b80610f6b90611f42565b9050610e5c565b5080915050919050565b610f8461169e565b73ffffffffffffffffffffffffffffffffffffffff16610fa2611004565b73ffffffffffffffffffffffffffffffffffffffff1614610ff8576040517f08c379a0000000000000000000000000000000000000000000000000000000008152600401610fef90611b73565b60405180910390fd5b61100260006116a6565b565b60008060009054906101000a900473ffffffffffffffffffffffffffffffffffffffff16905090565b600060078281548110611069577f4e487b7100000000000000000000000000000000000000000000000000000000600052603260045260246000fd5b90600052602060002090600402016040518060a001604052908160008201548152602001600182015481526020016002820160009054906101000a900460ff161515151581526020016002820160019054906101000a900473ffffffffffffffffffffffffffffffffffffffff1673ffffffffffffffffffffffffffffffffffffffff1673ffffffffffffffffffffffffffffffffffffffff16815260200160038201805461111790611edf565b80601f016020809104026020016040519081016040528092919081815260200182805461114390611edf565b80156111905780601f1061116557610100808354040283529160200191611190565b820191906000526020600020905b81548152906001019060200180831161117357829003601f168201915b50505050508152505090503373ffffffffffffffffffffffffffffffffffffffff1660068260200151815481106111f0577f4e487b7100000000000000000000000000000000000000000000000000000000600052603260045260246000fd5b906000526020600020906003020160010160009054906101000a900473ffffffffffffffffffffffffffffffffffffffff1673ffffffffffffffffffffffffffffffffffffffff1614611278576040517f08c379a000000000000000000000000000000000000000000000000000000000815260040161126f90611bb3565b60405180910390fd5b600160068260200151815481106112b8577f4e487b7100000000000000000000000000000000000000000000000000000000600052603260045260246000fd5b906000526020600020906003020160010160146101000a81548160ff02191690831515021790555060016007838154811061131c577f4e487b7100000000000000000000000000000000000000000000000000000000600052603260045260246000fd5b906000526020600020906004020160020160006101000a81548160ff0219169083151502179055506007828154811061137e577f4e487b7100000000000000000000000000000000000000000000000000000000600052603260045260246000fd5b906000526020600020906004020160020160019054906101000a900473ffffffffffffffffffffffffffffffffffffffff1673ffffffffffffffffffffffffffffffffffffffff166108fc662386f26fc100009081150290604051600060405180830381858888f193505050501580156113fc573d6000803e3d6000fd5b507fcecb8c40b48d03a4da91c64f203bc2f2b2228f95e9886bb6cbd52e7fe7b3e5af828260200151604051611432929190611cc1565b60405180910390a15050565b611447336106b4565b15611487576040517f08c379a000000000000000000000000000000000000000000000000000000000815260040161147e90611b53565b60405180910390fd5b60056040518060600160405280600081526020013373ffffffffffffffffffffffffffffffffffffffff1681526020018381525090806001815401808255809150506001900390600052602060002090600302016000909190919091506000820151816000015560208201518160010160006101000a81548173ffffffffffffffffffffffffffffffffffffffff021916908373ffffffffffffffffffffffffffffffffffffffff160217905550604082015181600201908051906020019061155192919061176a565b5050506002600081548092919061156790611f42565b91905055507f3ad53045c2cbf33ce0fc9ef31510dc64aef0a93bf110235b3dff696198336aad3360405161159b9190611acd565b60405180910390a150565b6115ae61169e565b73ffffffffffffffffffffffffffffffffffffffff166115cc611004565b73ffffffffffffffffffffffffffffffffffffffff1614611622576040517f08c379a000000000000000000000000000000000000000000000000000000000815260040161161990611b73565b60405180910390fd5b600073ffffffffffffffffffffffffffffffffffffffff168173ffffffffffffffffffffffffffffffffffffffff161415611692576040517f08c379a000000000000000000000000000000000000000000000000000000000815260040161168990611b33565b60405180910390fd5b61169b816116a6565b50565b600033905090565b60008060009054906101000a900473ffffffffffffffffffffffffffffffffffffffff169050816000806101000a81548173ffffffffffffffffffffffffffffffffffffffff021916908373ffffffffffffffffffffffffffffffffffffffff1602179055508173ffffffffffffffffffffffffffffffffffffffff168173ffffffffffffffffffffffffffffffffffffffff167f8be0079c531659141344cd1fd0a4f28419497f9722a3daafe3b4186f6b6457e060405160405180910390a35050565b82805461177690611edf565b90600052602060002090601f01602090048101928261179857600085556117df565b82601f106117b157805160ff19168380011785556117df565b828001600101855582156117df579182015b828111156117de5782518255916020019190600101906117c3565b5b5090506117ec91906117f0565b5090565b5b808211156118095760008160009055506001016117f1565b5090565b600061182061181b84611da0565b611d7b565b90508281526020810184848401111561183857600080fd5b611843848285611e9d565b509392505050565b60008135905061185a81612145565b92915050565b600082601f83011261187157600080fd5b813561188184826020860161180d565b91505092915050565b6000813590506118998161215c565b92915050565b6000602082840312156118b157600080fd5b60006118bf8482850161184b565b91505092915050565b6000602082840312156118da57600080fd5b600082013567ffffffffffffffff8111156118f457600080fd5b61190084828501611860565b91505092915050565b60006020828403121561191b57600080fd5b60006119298482850161188a565b91505092915050565b6000806040838503121561194557600080fd5b60006119538582860161188a565b925050602083013567ffffffffffffffff81111561197057600080fd5b61197c85828601611860565b9150509250929050565b61198f81611e55565b82525050565b61199e81611e43565b82525050565b6119ad81611e67565b82525050565b60006119be82611dd1565b6119c88185611ddc565b93506119d8818560208601611eac565b6119e181612018565b840191505092915050565b60006119f9602683611ddc565b9150611a0482612029565b604082019050919050565b6000611a1c601283611ddc565b9150611a2782612078565b602082019050919050565b6000611a3f602083611ddc565b9150611a4a826120a1565b602082019050919050565b6000611a62601383611ddc565b9150611a6d826120ca565b602082019050919050565b6000611a85601183611ddc565b9150611a90826120f3565b602082019050919050565b6000611aa8601383611ddc565b9150611ab38261211c565b602082019050919050565b611ac781611e93565b82525050565b6000602082019050611ae26000830184611995565b92915050565b6000604082019050611afd6000830185611995565b8181036020830152611b0f81846119b3565b90509392505050565b6000602082019050611b2d60008301846119a4565b92915050565b60006020820190508181036000830152611b4c816119ec565b9050919050565b60006020820190508181036000830152611b6c81611a0f565b9050919050565b60006020820190508181036000830152611b8c81611a32565b9050919050565b60006020820190508181036000830152611bac81611a55565b9050919050565b60006020820190508181036000830152611bcc81611a78565b9050919050565b60006020820190508181036000830152611bec81611a9b565b9050919050565b6000602082019050611c086000830184611abe565b92915050565b6000604082019050611c236000830185611abe565b611c306020830184611995565b9392505050565b6000608082019050611c4c6000830187611abe565b611c596020830186611995565b611c6660408301856119a4565b8181036060830152611c7881846119b3565b905095945050505050565b6000606082019050611c986000830186611abe565b611ca56020830185611995565b8181036040830152611cb781846119b3565b9050949350505050565b6000604082019050611cd66000830185611abe565b611ce36020830184611abe565b9392505050565b6000606082019050611cff6000830186611abe565b611d0c6020830185611abe565b611d196040830184611995565b949350505050565b600060a082019050611d366000830188611abe565b611d436020830187611abe565b611d5060408301866119a4565b611d5d6060830185611986565b8181036080830152611d6f81846119b3565b90509695505050505050565b6000611d85611d96565b9050611d918282611f11565b919050565b6000604051905090565b600067ffffffffffffffff821115611dbb57611dba611fe9565b5b611dc482612018565b9050602081019050919050565b600081519050919050565b600082825260208201905092915050565b6000611df882611e93565b9150611e0383611e93565b9250827fffffffffffffffffffffffffffffffffffffffffffffffffffffffffffffffff03821115611e3857611e37611f8b565b5b828201905092915050565b6000611e4e82611e73565b9050919050565b6000611e6082611e73565b9050919050565b60008115159050919050565b600073ffffffffffffffffffffffffffffffffffffffff82169050919050565b6000819050919050565b82818337600083830152505050565b60005b83811015611eca578082015181840152602081019050611eaf565b83811115611ed9576000848401525b50505050565b60006002820490506001821680611ef757607f821691505b60208210811415611f0b57611f0a611fba565b5b50919050565b611f1a82612018565b810181811067ffffffffffffffff82111715611f3957611f38611fe9565b5b80604052505050565b6000611f4d82611e93565b91507fffffffffffffffffffffffffffffffffffffffffffffffffffffffffffffffff821415611f8057611f7f611f8b565b5b600182019050919050565b7f4e487b7100000000000000000000000000000000000000000000000000000000600052601160045260246000fd5b7f4e487b7100000000000000000000000000000000000000000000000000000000600052602260045260246000fd5b7f4e487b7100000000000000000000000000000000000000000000000000000000600052604160045260246000fd5b6000601f19601f8301169050919050565b7f4f776e61626c653a206e6577206f776e657220697320746865207a65726f206160008201527f6464726573730000000000000000000000000000000000000000000000000000602082015250565b7f416c726561647920726567697374657265640000000000000000000000000000600082015250565b7f4f776e61626c653a2063616c6c6572206973206e6f7420746865206f776e6572600082015250565b7f496e73756666696369656e7420616d6f756e7400000000000000000000000000600082015250565b7f4e6f74206f726967696e616c2075736572000000000000000000000000000000600082015250565b7f4e6f742072656769737465726564207573657200000000000000000000000000600082015250565b61214e81611e43565b811461215957600080fd5b50565b61216581611e93565b811461217057600080fd5b5056fea2646970667358221220084e10cc68df3cd0b4e006a3ae2117632b25e13804650a7ec1ca2411ea01413f64736f6c63430008020033",
  "immutableReferences": {},
  "source": "// SPDX-License-Identifier: MIT\r\npragma solidity >=0.4.22 <0.9.0;\r\n\r\nimport \"@openzeppelin/contracts/access/Ownable.sol\";\r\n\r\ninterface INFTContract {\r\n  function safeMint(address to, string memory uri) external;\r\n}\r\n\r\ncontract CryptoStackMain is Ownable {\r\n\r\n  address NFTContractAddress;\r\n\r\n  uint public userCount;\r\n  uint public questionCount;\r\n  uint public answerCount;\r\n\r\n  struct User {\r\n    uint userPoints;\r\n    address userAddress;\r\n    string userName;\r\n  }\r\n\r\n  struct Question{\r\n    uint id;\r\n    address questionaireAddress;\r\n    bool isAnswered;\r\n    string questionString;\r\n  }\r\n\r\n  struct Answer{\r\n    uint id;\r\n    uint questionId;\r\n    bool isAccepted;\r\n    address payable replierAddress;\r\n    string answerString;\r\n  }\r\n  \r\n  User[] public users;\r\n  Question[] public questions;\r\n  Answer[] public answers;\r\n\r\n  event registeredNewUser(address);\r\n  event createdNewQuestion(uint, address);\r\n  event answeredQuestion(uint, uint, address);\r\n  event acceptedAnswer(uint, uint);\r\n  event purchasedNFT(address);\r\n\r\n  function isRegisteredUser(address _user) public view returns(bool) {\r\n    bool registeredUser;\r\n    for (uint i = 0; i < userCount; ++i) {\r\n      if (users[i].userAddress == _user) {\r\n        registeredUser = true;\r\n      }\r\n    }\r\n    return registeredUser;\r\n  }\r\n\r\n  function isFrequentContributor(address _user) public view returns(bool) {\r\n    bool frequentContributor;\r\n    for (uint i = 0; i < userCount; ++i) {\r\n      if (users[i].userAddress == _user && users[i].userPoints > 100) {\r\n        frequentContributor = true;\r\n      }\r\n    }\r\n    return frequentContributor;\r\n  }\r\n\r\n  function setNFTContractAddress(address _NFTContractAddress) external onlyOwner {\r\n    NFTContractAddress = _NFTContractAddress;\r\n  }\r\n\r\n  function registerNewUser(string memory _userName) external {\r\n    require(!isRegisteredUser(msg.sender), \"Already registered\");\r\n    users.push(User(0, msg.sender, _userName));\r\n    userCount++;\r\n    emit registeredNewUser(msg.sender);\r\n  }\r\n\r\n  function createNewQuestion(string memory _questionString) external {\r\n    require(isRegisteredUser(msg.sender), \"Not registered user\");\r\n    questions.push(Question(questionCount, msg.sender, false , _questionString));\r\n    emit createdNewQuestion(questionCount, msg.sender);\r\n    questionCount++;\r\n  }\r\n\r\n  function answerQuestion(uint _questionId, string memory _answerString) external {\r\n    require(isRegisteredUser(msg.sender), \"Not registered user\");\r\n    answers.push(Answer(answerCount, _questionId, false, payable(msg.sender), _answerString));\r\n    for (uint i = 0; i < userCount; ++i) {\r\n      if (users[i].userAddress == msg.sender) {\r\n        users[i].userPoints += 10;\r\n      }\r\n    }\r\n    emit answeredQuestion(_questionId, answerCount, msg.sender);\r\n    answerCount++;\r\n  }\r\n  \r\n  function acceptAnswer(uint _answerId) external {\r\n    Answer memory answer = answers[_answerId];\r\n    require(questions[answer.questionId].questionaireAddress == msg.sender, \"Not original user\");\r\n    questions[answer.questionId].isAnswered = true;\r\n    answers[_answerId].isAccepted = true;\r\n    payable(answers[_answerId].replierAddress).transfer(0.01 ether);\r\n    emit acceptedAnswer(_answerId, answer.questionId);\r\n  }\r\n\r\n  function payToMint(string memory _uri) external payable {\r\n    if (isFrequentContributor(msg.sender)) {\r\n      require(msg.value >= 0.05 ether, \"Insufficient amount\");\r\n    } else {\r\n      require(msg.value >= 0.1 ether, \"Insufficient amount\"); \r\n    }\r\n    INFTContract(NFTContractAddress).safeMint(msg.sender, _uri);\r\n    emit purchasedNFT(msg.sender);\r\n  }\r\n}",
  "sourcePath": "D:/Hackathons/Devfolio online/ByteSynergy/project/CryptoStack/truffle/contracts/CryptoStackMain.sol",
  "compiler": {
    "name": "solc",
    "version": "0.8.2+commit.661d1103.Emscripten.clang"
  },
  "schemaVersion": "3.4.1",
  "updatedAt": "2022-02-12T17:37:05.310Z",
  "networkType": "ethereum",
  "devdoc": {
    "kind": "dev",
    "methods": {
      "owner()": {
        "details": "Returns the address of the current owner."
      },
      "renounceOwnership()": {
        "details": "Leaves the contract without owner. It will not be possible to call `onlyOwner` functions anymore. Can only be called by the current owner. NOTE: Renouncing ownership will leave the contract without an owner, thereby removing any functionality that is only available to the owner."
      },
      "transferOwnership(address)": {
        "details": "Transfers ownership of the contract to a new account (`newOwner`). Can only be called by the current owner."
      }
    },
    "version": 1
  },
  "userdoc": {
    "kind": "user",
    "methods": {},
    "version": 1
  }
}