{
  "contractName": "CryptoStackRewardNFT",
  "abi": [
    {
      "inputs": [],
      "stateMutability": "nonpayable",
      "type": "constructor"
    },
    {
      "anonymous": false,
      "inputs": [
        {
          "indexed": true,
          "internalType": "address",
          "name": "owner",
          "type": "address"
        },
        {
          "indexed": true,
          "internalType": "address",
          "name": "approved",
          "type": "address"
        },
        {
          "indexed": true,
          "internalType": "uint256",
          "name": "tokenId",
          "type": "uint256"
        }
      ],
      "name": "Approval",
      "type": "event"
    },
    {
      "anonymous": false,
      "inputs": [
        {
          "indexed": true,
          "internalType": "address",
          "name": "owner",
          "type": "address"
        },
        {
          "indexed": true,
          "internalType": "address",
          "name": "operator",
          "type": "address"
        },
        {
          "indexed": false,
          "internalType": "bool",
          "name": "approved",
          "type": "bool"
        }
      ],
      "name": "ApprovalForAll",
      "type": "event"
    },
    {
      "anonymous": false,
      "inputs": [
        {
          "indexed": true,
          "internalType": "bytes32",
          "name": "role",
          "type": "bytes32"
        },
        {
          "indexed": true,
          "internalType": "bytes32",
          "name": "previousAdminRole",
          "type": "bytes32"
        },
        {
          "indexed": true,
          "internalType": "bytes32",
          "name": "newAdminRole",
          "type": "bytes32"
        }
      ],
      "name": "RoleAdminChanged",
      "type": "event"
    },
    {
      "anonymous": false,
      "inputs": [
        {
          "indexed": true,
          "internalType": "bytes32",
          "name": "role",
          "type": "bytes32"
        },
        {
          "indexed": true,
          "internalType": "address",
          "name": "account",
          "type": "address"
        },
        {
          "indexed": true,
          "internalType": "address",
          "name": "sender",
          "type": "address"
        }
      ],
      "name": "RoleGranted",
      "type": "event"
    },
    {
      "anonymous": false,
      "inputs": [
        {
          "indexed": true,
          "internalType": "bytes32",
          "name": "role",
          "type": "bytes32"
        },
        {
          "indexed": true,
          "internalType": "address",
          "name": "account",
          "type": "address"
        },
        {
          "indexed": true,
          "internalType": "address",
          "name": "sender",
          "type": "address"
        }
      ],
      "name": "RoleRevoked",
      "type": "event"
    },
    {
      "anonymous": false,
      "inputs": [
        {
          "indexed": true,
          "internalType": "address",
          "name": "from",
          "type": "address"
        },
        {
          "indexed": true,
          "internalType": "address",
          "name": "to",
          "type": "address"
        },
        {
          "indexed": true,
          "internalType": "uint256",
          "name": "tokenId",
          "type": "uint256"
        }
      ],
      "name": "Transfer",
      "type": "event"
    },
    {
      "inputs": [],
      "name": "DEFAULT_ADMIN_ROLE",
      "outputs": [
        {
          "internalType": "bytes32",
          "name": "",
          "type": "bytes32"
        }
      ],
      "stateMutability": "view",
      "type": "function",
      "constant": true
    },
    {
      "inputs": [],
      "name": "MINTER_ROLE",
      "outputs": [
        {
          "internalType": "bytes32",
          "name": "",
          "type": "bytes32"
        }
      ],
      "stateMutability": "view",
      "type": "function",
      "constant": true
    },
    {
      "inputs": [
        {
          "internalType": "address",
          "name": "to",
          "type": "address"
        },
        {
          "internalType": "uint256",
          "name": "tokenId",
          "type": "uint256"
        }
      ],
      "name": "approve",
      "outputs": [],
      "stateMutability": "nonpayable",
      "type": "function"
    },
    {
      "inputs": [
        {
          "internalType": "address",
          "name": "owner",
          "type": "address"
        }
      ],
      "name": "balanceOf",
      "outputs": [
        {
          "internalType": "uint256",
          "name": "",
          "type": "uint256"
        }
      ],
      "stateMutability": "view",
      "type": "function",
      "constant": true
    },
    {
      "inputs": [
        {
          "internalType": "uint256",
          "name": "tokenId",
          "type": "uint256"
        }
      ],
      "name": "getApproved",
      "outputs": [
        {
          "internalType": "address",
          "name": "",
          "type": "address"
        }
      ],
      "stateMutability": "view",
      "type": "function",
      "constant": true
    },
    {
      "inputs": [
        {
          "internalType": "bytes32",
          "name": "role",
          "type": "bytes32"
        }
      ],
      "name": "getRoleAdmin",
      "outputs": [
        {
          "internalType": "bytes32",
          "name": "",
          "type": "bytes32"
        }
      ],
      "stateMutability": "view",
      "type": "function",
      "constant": true
    },
    {
      "inputs": [
        {
          "internalType": "bytes32",
          "name": "role",
          "type": "bytes32"
        },
        {
          "internalType": "address",
          "name": "account",
          "type": "address"
        }
      ],
      "name": "grantRole",
      "outputs": [],
      "stateMutability": "nonpayable",
      "type": "function"
    },
    {
      "inputs": [
        {
          "internalType": "bytes32",
          "name": "role",
          "type": "bytes32"
        },
        {
          "internalType": "address",
          "name": "account",
          "type": "address"
        }
      ],
      "name": "hasRole",
      "outputs": [
        {
          "internalType": "bool",
          "name": "",
          "type": "bool"
        }
      ],
      "stateMutability": "view",
      "type": "function",
      "constant": true
    },
    {
      "inputs": [
        {
          "internalType": "address",
          "name": "owner",
          "type": "address"
        },
        {
          "internalType": "address",
          "name": "operator",
          "type": "address"
        }
      ],
      "name": "isApprovedForAll",
      "outputs": [
        {
          "internalType": "bool",
          "name": "",
          "type": "bool"
        }
      ],
      "stateMutability": "view",
      "type": "function",
      "constant": true
    },
    {
      "inputs": [],
      "name": "name",
      "outputs": [
        {
          "internalType": "string",
          "name": "",
          "type": "string"
        }
      ],
      "stateMutability": "view",
      "type": "function",
      "constant": true
    },
    {
      "inputs": [
        {
          "internalType": "uint256",
          "name": "",
          "type": "uint256"
        }
      ],
      "name": "nfts",
      "outputs": [
        {
          "internalType": "uint256",
          "name": "tokenID",
          "type": "uint256"
        },
        {
          "internalType": "address",
          "name": "owner",
          "type": "address"
        }
      ],
      "stateMutability": "view",
      "type": "function",
      "constant": true
    },
    {
      "inputs": [
        {
          "internalType": "uint256",
          "name": "tokenId",
          "type": "uint256"
        }
      ],
      "name": "ownerOf",
      "outputs": [
        {
          "internalType": "address",
          "name": "",
          "type": "address"
        }
      ],
      "stateMutability": "view",
      "type": "function",
      "constant": true
    },
    {
      "inputs": [
        {
          "internalType": "bytes32",
          "name": "role",
          "type": "bytes32"
        },
        {
          "internalType": "address",
          "name": "account",
          "type": "address"
        }
      ],
      "name": "renounceRole",
      "outputs": [],
      "stateMutability": "nonpayable",
      "type": "function"
    },
    {
      "inputs": [
        {
          "internalType": "bytes32",
          "name": "role",
          "type": "bytes32"
        },
        {
          "internalType": "address",
          "name": "account",
          "type": "address"
        }
      ],
      "name": "revokeRole",
      "outputs": [],
      "stateMutability": "nonpayable",
      "type": "function"
    },
    {
      "inputs": [
        {
          "internalType": "address",
          "name": "from",
          "type": "address"
        },
        {
          "internalType": "address",
          "name": "to",
          "type": "address"
        },
        {
          "internalType": "uint256",
          "name": "tokenId",
          "type": "uint256"
        }
      ],
      "name": "safeTransferFrom",
      "outputs": [],
      "stateMutability": "nonpayable",
      "type": "function"
    },
    {
      "inputs": [
        {
          "internalType": "address",
          "name": "from",
          "type": "address"
        },
        {
          "internalType": "address",
          "name": "to",
          "type": "address"
        },
        {
          "internalType": "uint256",
          "name": "tokenId",
          "type": "uint256"
        },
        {
          "internalType": "bytes",
          "name": "_data",
          "type": "bytes"
        }
      ],
      "name": "safeTransferFrom",
      "outputs": [],
      "stateMutability": "nonpayable",
      "type": "function"
    },
    {
      "inputs": [
        {
          "internalType": "address",
          "name": "operator",
          "type": "address"
        },
        {
          "internalType": "bool",
          "name": "approved",
          "type": "bool"
        }
      ],
      "name": "setApprovalForAll",
      "outputs": [],
      "stateMutability": "nonpayable",
      "type": "function"
    },
    {
      "inputs": [],
      "name": "symbol",
      "outputs": [
        {
          "internalType": "string",
          "name": "",
          "type": "string"
        }
      ],
      "stateMutability": "view",
      "type": "function",
      "constant": true
    },
    {
      "inputs": [
        {
          "internalType": "address",
          "name": "from",
          "type": "address"
        },
        {
          "internalType": "address",
          "name": "to",
          "type": "address"
        },
        {
          "internalType": "uint256",
          "name": "tokenId",
          "type": "uint256"
        }
      ],
      "name": "transferFrom",
      "outputs": [],
      "stateMutability": "nonpayable",
      "type": "function"
    },
    {
      "inputs": [],
      "name": "returnNFTCount",
      "outputs": [
        {
          "internalType": "uint256",
          "name": "",
          "type": "uint256"
        }
      ],
      "stateMutability": "view",
      "type": "function",
      "constant": true
    },
    {
      "inputs": [
        {
          "internalType": "address",
          "name": "to",
          "type": "address"
        },
        {
          "internalType": "string",
          "name": "uri",
          "type": "string"
        }
      ],
      "name": "safeMint",
      "outputs": [],
      "stateMutability": "nonpayable",
      "type": "function"
    },
    {
      "inputs": [
        {
          "internalType": "uint256",
          "name": "tokenId",
          "type": "uint256"
        }
      ],
      "name": "tokenURI",
      "outputs": [
        {
          "internalType": "string",
          "name": "",
          "type": "string"
        }
      ],
      "stateMutability": "view",
      "type": "function",
      "constant": true
    },
    {
      "inputs": [
        {
          "internalType": "bytes4",
          "name": "interfaceId",
          "type": "bytes4"
        }
      ],
      "name": "supportsInterface",
      "outputs": [
        {
          "internalType": "bool",
          "name": "",
          "type": "bool"
        }
      ],
      "stateMutability": "view",
      "type": "function",
      "constant": true
    }
  ],
  "bytecode": "0x60806040523480156200001157600080fd5b506040518060400160405280601481526020017f43727970746f537461636b5265776172644e46540000000000000000000000008152506040518060400160405280600381526020017f43535200000000000000000000000000000000000000000000000000000000008152508160009080519060200190620000969291906200027a565b508060019080519060200190620000af9291906200027a565b505050620000c76000801b33620000ff60201b60201c565b620000f97f9f2df0fed2c77648de5860a4cc508cd0818c85b8b8a1ab4ceeef8d981c8956a633620000ff60201b60201c565b6200038f565b6200011182826200011560201b60201c565b5050565b6200012782826200020760201b60201c565b620002035760016007600084815260200190815260200160002060000160008373ffffffffffffffffffffffffffffffffffffffff1673ffffffffffffffffffffffffffffffffffffffff16815260200190815260200160002060006101000a81548160ff021916908315150217905550620001a86200027260201b60201c565b73ffffffffffffffffffffffffffffffffffffffff168173ffffffffffffffffffffffffffffffffffffffff16837f2f8788117e7eff1d82e926ec794901d17c78024a50270940304540a733656f0d60405160405180910390a45b5050565b60006007600084815260200190815260200160002060000160008373ffffffffffffffffffffffffffffffffffffffff1673ffffffffffffffffffffffffffffffffffffffff16815260200190815260200160002060009054906101000a900460ff16905092915050565b600033905090565b82805462000288906200032a565b90600052602060002090601f016020900481019282620002ac5760008555620002f8565b82601f10620002c757805160ff1916838001178555620002f8565b82800160010185558215620002f8579182015b82811115620002f7578251825591602001919060010190620002da565b5b5090506200030791906200030b565b5090565b5b80821115620003265760008160009055506001016200030c565b5090565b600060028204905060018216806200034357607f821691505b602082108114156200035a576200035962000360565b5b50919050565b7f4e487b7100000000000000000000000000000000000000000000000000000000600052602260045260246000fd5b61399c806200039f6000396000f3fe608060405234801561001057600080fd5b506004361061014d5760003560e01c80636352211e116100c3578063b88d4fde1161007c578063b88d4fde146103c3578063c87b56dd146103df578063d204c45e1461040f578063d53913931461042b578063d547741f14610449578063e985e9c5146104655761014d565b80636352211e146102db57806370a082311461030b57806391d148541461033b57806395d89b411461036b578063a217fddf14610389578063a22cb465146103a75761014d565b8063248a9ca311610115578063248a9ca314610208578063265aa621146102385780632f2ff15d1461026957806336568abe146102855780633ed6c81a146102a157806342842e0e146102bf5761014d565b806301ffc9a71461015257806306fdde0314610182578063081812fc146101a0578063095ea7b3146101d057806323b872dd146101ec575b600080fd5b61016c60048036038101906101679190612781565b610495565b6040516101799190612c5c565b60405180910390f35b61018a6104a7565b6040516101979190612c92565b60405180910390f35b6101ba60048036038101906101b591906127d3565b610539565b6040516101c79190612bf5565b60405180910390f35b6101ea60048036038101906101e591906126e0565b6105be565b005b61020660048036038101906102019190612586565b6106d6565b005b610222600480360381019061021d919061271c565b610736565b60405161022f9190612c77565b60405180910390f35b610252600480360381019061024d91906127d3565b610756565b604051610260929190612f0f565b60405180910390f35b610283600480360381019061027e9190612745565b6107aa565b005b61029f600480360381019061029a9190612745565b6107d3565b005b6102a9610856565b6040516102b69190612ef4565b60405180910390f35b6102d960048036038101906102d49190612586565b610863565b005b6102f560048036038101906102f091906127d3565b610883565b6040516103029190612bf5565b60405180910390f35b61032560048036038101906103209190612521565b610935565b6040516103329190612ef4565b60405180910390f35b61035560048036038101906103509190612745565b6109ed565b6040516103629190612c5c565b60405180910390f35b610373610a58565b6040516103809190612c92565b60405180910390f35b610391610aea565b60405161039e9190612c77565b60405180910390f35b6103c160048036038101906103bc9190612650565b610af1565b005b6103dd60048036038101906103d891906125d5565b610b07565b005b6103f960048036038101906103f491906127d3565b610b69565b6040516104069190612c92565b60405180910390f35b6104296004803603810190610424919061268c565b610b7b565b005b610433610c88565b6040516104409190612c77565b60405180910390f35b610463600480360381019061045e9190612745565b610cac565b005b61047f600480360381019061047a919061254a565b610cd5565b60405161048c9190612c5c565b60405180910390f35b60006104a082610d69565b9050919050565b6060600080546104b690613201565b80601f01602080910402602001604051908101604052809291908181526020018280546104e290613201565b801561052f5780601f106105045761010080835404028352916020019161052f565b820191906000526020600020905b81548152906001019060200180831161051257829003601f168201915b5050505050905090565b600061054482610de3565b610583576040517f08c379a000000000000000000000000000000000000000000000000000000000815260040161057a90612e54565b60405180910390fd5b6004600083815260200190815260200160002060009054906101000a900473ffffffffffffffffffffffffffffffffffffffff169050919050565b60006105c982610883565b90508073ffffffffffffffffffffffffffffffffffffffff168373ffffffffffffffffffffffffffffffffffffffff16141561063a576040517f08c379a000000000000000000000000000000000000000000000000000000000815260040161063190612e94565b60405180910390fd5b8073ffffffffffffffffffffffffffffffffffffffff16610659610e4f565b73ffffffffffffffffffffffffffffffffffffffff161480610688575061068781610682610e4f565b610cd5565b5b6106c7576040517f08c379a00000000000000000000000000000000000000000000000000000000081526004016106be90612d94565b60405180910390fd5b6106d18383610e57565b505050565b6106e76106e1610e4f565b82610f10565b610726576040517f08c379a000000000000000000000000000000000000000000000000000000000815260040161071d90612eb4565b60405180910390fd5b610731838383610fee565b505050565b600060076000838152602001908152602001600020600101549050919050565b6009818154811061076657600080fd5b90600052602060002090600202016000915090508060000154908060010160009054906101000a900473ffffffffffffffffffffffffffffffffffffffff16905082565b6107b382610736565b6107c4816107bf610e4f565b611255565b6107ce83836112f2565b505050565b6107db610e4f565b73ffffffffffffffffffffffffffffffffffffffff168173ffffffffffffffffffffffffffffffffffffffff1614610848576040517f08c379a000000000000000000000000000000000000000000000000000000000815260040161083f90612ed4565b60405180910390fd5b61085282826113d3565b5050565b6000600980549050905090565b61087e83838360405180602001604052806000815250610b07565b505050565b6000806002600084815260200190815260200160002060009054906101000a900473ffffffffffffffffffffffffffffffffffffffff169050600073ffffffffffffffffffffffffffffffffffffffff168173ffffffffffffffffffffffffffffffffffffffff16141561092c576040517f08c379a000000000000000000000000000000000000000000000000000000000815260040161092390612dd4565b60405180910390fd5b80915050919050565b60008073ffffffffffffffffffffffffffffffffffffffff168273ffffffffffffffffffffffffffffffffffffffff1614156109a6576040517f08c379a000000000000000000000000000000000000000000000000000000000815260040161099d90612db4565b60405180910390fd5b600360008373ffffffffffffffffffffffffffffffffffffffff1673ffffffffffffffffffffffffffffffffffffffff168152602001908152602001600020549050919050565b60006007600084815260200190815260200160002060000160008373ffffffffffffffffffffffffffffffffffffffff1673ffffffffffffffffffffffffffffffffffffffff16815260200190815260200160002060009054906101000a900460ff16905092915050565b606060018054610a6790613201565b80601f0160208091040260200160405190810160405280929190818152602001828054610a9390613201565b8015610ae05780601f10610ab557610100808354040283529160200191610ae0565b820191906000526020600020905b815481529060010190602001808311610ac357829003601f168201915b5050505050905090565b6000801b81565b610b03610afc610e4f565b83836114b5565b5050565b610b18610b12610e4f565b83610f10565b610b57576040517f08c379a0000000000000000000000000000000000000000000000000000000008152600401610b4e90612eb4565b60405180910390fd5b610b6384848484611622565b50505050565b6060610b748261167e565b9050919050565b7f9f2df0fed2c77648de5860a4cc508cd0818c85b8b8a1ab4ceeef8d981c8956a6610bad81610ba8610e4f565b611255565b6000610bb960086117d0565b9050610bc560086117de565b610bcf84826117f4565b610bd98184611812565b600960405180604001604052808381526020018673ffffffffffffffffffffffffffffffffffffffff1681525090806001815401808255809150506001900390600052602060002090600202016000909190919091506000820151816000015560208201518160010160006101000a81548173ffffffffffffffffffffffffffffffffffffffff021916908373ffffffffffffffffffffffffffffffffffffffff160217905550505050505050565b7f9f2df0fed2c77648de5860a4cc508cd0818c85b8b8a1ab4ceeef8d981c8956a681565b610cb582610736565b610cc681610cc1610e4f565b611255565b610cd083836113d3565b505050565b6000600560008473ffffffffffffffffffffffffffffffffffffffff1673ffffffffffffffffffffffffffffffffffffffff16815260200190815260200160002060008373ffffffffffffffffffffffffffffffffffffffff1673ffffffffffffffffffffffffffffffffffffffff16815260200190815260200160002060009054906101000a900460ff16905092915050565b60007f7965db0b000000000000000000000000000000000000000000000000000000007bffffffffffffffffffffffffffffffffffffffffffffffffffffffff1916827bffffffffffffffffffffffffffffffffffffffffffffffffffffffff19161480610ddc5750610ddb82611886565b5b9050919050565b60008073ffffffffffffffffffffffffffffffffffffffff166002600084815260200190815260200160002060009054906101000a900473ffffffffffffffffffffffffffffffffffffffff1673ffffffffffffffffffffffffffffffffffffffff1614159050919050565b600033905090565b816004600083815260200190815260200160002060006101000a81548173ffffffffffffffffffffffffffffffffffffffff021916908373ffffffffffffffffffffffffffffffffffffffff160217905550808273ffffffffffffffffffffffffffffffffffffffff16610eca83610883565b73ffffffffffffffffffffffffffffffffffffffff167f8c5be1e5ebec7d5bd14f71427d1e84f3dd0314c0f7b2291e5b200ac8c7c3b92560405160405180910390a45050565b6000610f1b82610de3565b610f5a576040517f08c379a0000000000000000000000000000000000000000000000000000000008152600401610f5190612d74565b60405180910390fd5b6000610f6583610883565b90508073ffffffffffffffffffffffffffffffffffffffff168473ffffffffffffffffffffffffffffffffffffffff161480610fd457508373ffffffffffffffffffffffffffffffffffffffff16610fbc84610539565b73ffffffffffffffffffffffffffffffffffffffff16145b80610fe55750610fe48185610cd5565b5b91505092915050565b8273ffffffffffffffffffffffffffffffffffffffff1661100e82610883565b73ffffffffffffffffffffffffffffffffffffffff1614611064576040517f08c379a000000000000000000000000000000000000000000000000000000000815260040161105b90612cf4565b60405180910390fd5b600073ffffffffffffffffffffffffffffffffffffffff168273ffffffffffffffffffffffffffffffffffffffff1614156110d4576040517f08c379a00000000000000000000000000000000000000000000000000000000081526004016110cb90612d34565b60405180910390fd5b6110df838383611968565b6110ea600082610e57565b6001600360008573ffffffffffffffffffffffffffffffffffffffff1673ffffffffffffffffffffffffffffffffffffffff168152602001908152602001600020600082825461113a91906130e3565b925050819055506001600360008473ffffffffffffffffffffffffffffffffffffffff1673ffffffffffffffffffffffffffffffffffffffff16815260200190815260200160002060008282546111919190613002565b92505081905550816002600083815260200190815260200160002060006101000a81548173ffffffffffffffffffffffffffffffffffffffff021916908373ffffffffffffffffffffffffffffffffffffffff160217905550808273ffffffffffffffffffffffffffffffffffffffff168473ffffffffffffffffffffffffffffffffffffffff167fddf252ad1be2c89b69c2b068fc378daa952ba7f163c4a11628f55a4df523b3ef60405160405180910390a461125083838361196d565b505050565b61125f82826109ed565b6112ee576112848173ffffffffffffffffffffffffffffffffffffffff166014611972565b6112928360001c6020611972565b6040516020016112a3929190612bbb565b6040516020818303038152906040526040517f08c379a00000000000000000000000000000000000000000000000000000000081526004016112e59190612c92565b60405180910390fd5b5050565b6112fc82826109ed565b6113cf5760016007600084815260200190815260200160002060000160008373ffffffffffffffffffffffffffffffffffffffff1673ffffffffffffffffffffffffffffffffffffffff16815260200190815260200160002060006101000a81548160ff021916908315150217905550611374610e4f565b73ffffffffffffffffffffffffffffffffffffffff168173ffffffffffffffffffffffffffffffffffffffff16837f2f8788117e7eff1d82e926ec794901d17c78024a50270940304540a733656f0d60405160405180910390a45b5050565b6113dd82826109ed565b156114b15760006007600084815260200190815260200160002060000160008373ffffffffffffffffffffffffffffffffffffffff1673ffffffffffffffffffffffffffffffffffffffff16815260200190815260200160002060006101000a81548160ff021916908315150217905550611456610e4f565b73ffffffffffffffffffffffffffffffffffffffff168173ffffffffffffffffffffffffffffffffffffffff16837ff6391f5c32d9c69d2a47ea670b442974b53935d1edc7fd64eb21e047a839171b60405160405180910390a45b5050565b8173ffffffffffffffffffffffffffffffffffffffff168373ffffffffffffffffffffffffffffffffffffffff161415611524576040517f08c379a000000000000000000000000000000000000000000000000000000000815260040161151b90612d54565b60405180910390fd5b80600560008573ffffffffffffffffffffffffffffffffffffffff1673ffffffffffffffffffffffffffffffffffffffff16815260200190815260200160002060008473ffffffffffffffffffffffffffffffffffffffff1673ffffffffffffffffffffffffffffffffffffffff16815260200190815260200160002060006101000a81548160ff0219169083151502179055508173ffffffffffffffffffffffffffffffffffffffff168373ffffffffffffffffffffffffffffffffffffffff167f17307eab39ab6107e8899845ad3d59bd9653f200f220920489ca2b5937696c31836040516116159190612c5c565b60405180910390a3505050565b61162d848484610fee565b61163984848484611c6c565b611678576040517f08c379a000000000000000000000000000000000000000000000000000000000815260040161166f90612cd4565b60405180910390fd5b50505050565b606061168982610de3565b6116c8576040517f08c379a00000000000000000000000000000000000000000000000000000000081526004016116bf90612e34565b60405180910390fd5b60006006600084815260200190815260200160002080546116e890613201565b80601f016020809104026020016040519081016040528092919081815260200182805461171490613201565b80156117615780601f1061173657610100808354040283529160200191611761565b820191906000526020600020905b81548152906001019060200180831161174457829003601f168201915b505050505090506000611772611e03565b90506000815114156117885781925050506117cb565b6000825111156117bd5780826040516020016117a5929190612b97565b604051602081830303815290604052925050506117cb565b6117c684611e1a565b925050505b919050565b600081600001549050919050565b6001816000016000828254019250508190555050565b61180e828260405180602001604052806000815250611ec1565b5050565b61181b82610de3565b61185a576040517f08c379a000000000000000000000000000000000000000000000000000000000815260040161185190612df4565b60405180910390fd5b80600660008481526020019081526020016000209080519060200190611881929190612330565b505050565b60007f80ac58cd000000000000000000000000000000000000000000000000000000007bffffffffffffffffffffffffffffffffffffffffffffffffffffffff1916827bffffffffffffffffffffffffffffffffffffffffffffffffffffffff1916148061195157507f5b5e139f000000000000000000000000000000000000000000000000000000007bffffffffffffffffffffffffffffffffffffffffffffffffffffffff1916827bffffffffffffffffffffffffffffffffffffffffffffffffffffffff1916145b80611961575061196082611f1c565b5b9050919050565b505050565b505050565b6060600060028360026119859190613089565b61198f9190613002565b67ffffffffffffffff8111156119ce577f4e487b7100000000000000000000000000000000000000000000000000000000600052604160045260246000fd5b6040519080825280601f01601f191660200182016040528015611a005781602001600182028036833780820191505090505b5090507f300000000000000000000000000000000000000000000000000000000000000081600081518110611a5e577f4e487b7100000000000000000000000000000000000000000000000000000000600052603260045260246000fd5b60200101907effffffffffffffffffffffffffffffffffffffffffffffffffffffffffffff1916908160001a9053507f780000000000000000000000000000000000000000000000000000000000000081600181518110611ae8577f4e487b7100000000000000000000000000000000000000000000000000000000600052603260045260246000fd5b60200101907effffffffffffffffffffffffffffffffffffffffffffffffffffffffffffff1916908160001a90535060006001846002611b289190613089565b611b329190613002565b90505b6001811115611c1e577f3031323334353637383961626364656600000000000000000000000000000000600f861660108110611b9a577f4e487b7100000000000000000000000000000000000000000000000000000000600052603260045260246000fd5b1a60f81b828281518110611bd7577f4e487b7100000000000000000000000000000000000000000000000000000000600052603260045260246000fd5b60200101907effffffffffffffffffffffffffffffffffffffffffffffffffffffffffffff1916908160001a905350600485901c945080611c17906131d7565b9050611b35565b5060008414611c62576040517f08c379a0000000000000000000000000000000000000000000000000000000008152600401611c5990612cb4565b60405180910390fd5b8091505092915050565b6000611c8d8473ffffffffffffffffffffffffffffffffffffffff16611f86565b15611df6578373ffffffffffffffffffffffffffffffffffffffff1663150b7a02611cb6610e4f565b8786866040518563ffffffff1660e01b8152600401611cd89493929190612c10565b602060405180830381600087803b158015611cf257600080fd5b505af1925050508015611d2357506040513d601f19601f82011682018060405250810190611d2091906127aa565b60015b611da6573d8060008114611d53576040519150601f19603f3d011682016040523d82523d6000602084013e611d58565b606091505b50600081511415611d9e576040517f08c379a0000000000000000000000000000000000000000000000000000000008152600401611d9590612cd4565b60405180910390fd5b805181602001fd5b63150b7a0260e01b7bffffffffffffffffffffffffffffffffffffffffffffffffffffffff1916817bffffffffffffffffffffffffffffffffffffffffffffffffffffffff191614915050611dfb565b600190505b949350505050565b606060405180602001604052806000815250905090565b6060611e2582610de3565b611e64576040517f08c379a0000000000000000000000000000000000000000000000000000000008152600401611e5b90612e74565b60405180910390fd5b6000611e6e611e03565b90506000815111611e8e5760405180602001604052806000815250611eb9565b80611e9884611fa9565b604051602001611ea9929190612b97565b6040516020818303038152906040525b915050919050565b611ecb8383612156565b611ed86000848484611c6c565b611f17576040517f08c379a0000000000000000000000000000000000000000000000000000000008152600401611f0e90612cd4565b60405180910390fd5b505050565b60007f01ffc9a7000000000000000000000000000000000000000000000000000000007bffffffffffffffffffffffffffffffffffffffffffffffffffffffff1916827bffffffffffffffffffffffffffffffffffffffffffffffffffffffff1916149050919050565b6000808273ffffffffffffffffffffffffffffffffffffffff163b119050919050565b60606000821415611ff1576040518060400160405280600181526020017f30000000000000000000000000000000000000000000000000000000000000008152509050612151565b600082905060005b6000821461202357808061200c90613264565b915050600a8261201c9190613058565b9150611ff9565b60008167ffffffffffffffff811115612065577f4e487b7100000000000000000000000000000000000000000000000000000000600052604160045260246000fd5b6040519080825280601f01601f1916602001820160405280156120975781602001600182028036833780820191505090505b5090505b6000851461214a576001826120b091906130e3565b9150600a856120bf91906132ad565b60306120cb9190613002565b60f81b818381518110612107577f4e487b7100000000000000000000000000000000000000000000000000000000600052603260045260246000fd5b60200101907effffffffffffffffffffffffffffffffffffffffffffffffffffffffffffff1916908160001a905350600a856121439190613058565b945061209b565b8093505050505b919050565b600073ffffffffffffffffffffffffffffffffffffffff168273ffffffffffffffffffffffffffffffffffffffff1614156121c6576040517f08c379a00000000000000000000000000000000000000000000000000000000081526004016121bd90612e14565b60405180910390fd5b6121cf81610de3565b1561220f576040517f08c379a000000000000000000000000000000000000000000000000000000000815260040161220690612d14565b60405180910390fd5b61221b60008383611968565b6001600360008473ffffffffffffffffffffffffffffffffffffffff1673ffffffffffffffffffffffffffffffffffffffff168152602001908152602001600020600082825461226b9190613002565b92505081905550816002600083815260200190815260200160002060006101000a81548173ffffffffffffffffffffffffffffffffffffffff021916908373ffffffffffffffffffffffffffffffffffffffff160217905550808273ffffffffffffffffffffffffffffffffffffffff16600073ffffffffffffffffffffffffffffffffffffffff167fddf252ad1be2c89b69c2b068fc378daa952ba7f163c4a11628f55a4df523b3ef60405160405180910390a461232c6000838361196d565b5050565b82805461233c90613201565b90600052602060002090601f01602090048101928261235e57600085556123a5565b82601f1061237757805160ff19168380011785556123a5565b828001600101855582156123a5579182015b828111156123a4578251825591602001919060010190612389565b5b5090506123b291906123b6565b5090565b5b808211156123cf5760008160009055506001016123b7565b5090565b60006123e66123e184612f5d565b612f38565b9050828152602081018484840111156123fe57600080fd5b612409848285613195565b509392505050565b600061242461241f84612f8e565b612f38565b90508281526020810184848401111561243c57600080fd5b612447848285613195565b509392505050565b60008135905061245e816138f3565b92915050565b6000813590506124738161390a565b92915050565b60008135905061248881613921565b92915050565b60008135905061249d81613938565b92915050565b6000815190506124b281613938565b92915050565b600082601f8301126124c957600080fd5b81356124d98482602086016123d3565b91505092915050565b600082601f8301126124f357600080fd5b8135612503848260208601612411565b91505092915050565b60008135905061251b8161394f565b92915050565b60006020828403121561253357600080fd5b60006125418482850161244f565b91505092915050565b6000806040838503121561255d57600080fd5b600061256b8582860161244f565b925050602061257c8582860161244f565b9150509250929050565b60008060006060848603121561259b57600080fd5b60006125a98682870161244f565b93505060206125ba8682870161244f565b92505060406125cb8682870161250c565b9150509250925092565b600080600080608085870312156125eb57600080fd5b60006125f98782880161244f565b945050602061260a8782880161244f565b935050604061261b8782880161250c565b925050606085013567ffffffffffffffff81111561263857600080fd5b612644878288016124b8565b91505092959194509250565b6000806040838503121561266357600080fd5b60006126718582860161244f565b925050602061268285828601612464565b9150509250929050565b6000806040838503121561269f57600080fd5b60006126ad8582860161244f565b925050602083013567ffffffffffffffff8111156126ca57600080fd5b6126d6858286016124e2565b9150509250929050565b600080604083850312156126f357600080fd5b60006127018582860161244f565b92505060206127128582860161250c565b9150509250929050565b60006020828403121561272e57600080fd5b600061273c84828501612479565b91505092915050565b6000806040838503121561275857600080fd5b600061276685828601612479565b92505060206127778582860161244f565b9150509250929050565b60006020828403121561279357600080fd5b60006127a18482850161248e565b91505092915050565b6000602082840312156127bc57600080fd5b60006127ca848285016124a3565b91505092915050565b6000602082840312156127e557600080fd5b60006127f38482850161250c565b91505092915050565b61280581613117565b82525050565b61281481613129565b82525050565b61282381613135565b82525050565b600061283482612fbf565b61283e8185612fd5565b935061284e8185602086016131a4565b6128578161339a565b840191505092915050565b600061286d82612fca565b6128778185612fe6565b93506128878185602086016131a4565b6128908161339a565b840191505092915050565b60006128a682612fca565b6128b08185612ff7565b93506128c08185602086016131a4565b80840191505092915050565b60006128d9602083612fe6565b91506128e4826133ab565b602082019050919050565b60006128fc603283612fe6565b9150612907826133d4565b604082019050919050565b600061291f602583612fe6565b915061292a82613423565b604082019050919050565b6000612942601c83612fe6565b915061294d82613472565b602082019050919050565b6000612965602483612fe6565b91506129708261349b565b604082019050919050565b6000612988601983612fe6565b9150612993826134ea565b602082019050919050565b60006129ab602c83612fe6565b91506129b682613513565b604082019050919050565b60006129ce603883612fe6565b91506129d982613562565b604082019050919050565b60006129f1602a83612fe6565b91506129fc826135b1565b604082019050919050565b6000612a14602983612fe6565b9150612a1f82613600565b604082019050919050565b6000612a37602e83612fe6565b9150612a428261364f565b604082019050919050565b6000612a5a602083612fe6565b9150612a658261369e565b602082019050919050565b6000612a7d603183612fe6565b9150612a88826136c7565b604082019050919050565b6000612aa0602c83612fe6565b9150612aab82613716565b604082019050919050565b6000612ac3602f83612fe6565b9150612ace82613765565b604082019050919050565b6000612ae6602183612fe6565b9150612af1826137b4565b604082019050919050565b6000612b09603183612fe6565b9150612b1482613803565b604082019050919050565b6000612b2c601783612ff7565b9150612b3782613852565b601782019050919050565b6000612b4f601183612ff7565b9150612b5a8261387b565b601182019050919050565b6000612b72602f83612fe6565b9150612b7d826138a4565b604082019050919050565b612b918161318b565b82525050565b6000612ba3828561289b565b9150612baf828461289b565b91508190509392505050565b6000612bc682612b1f565b9150612bd2828561289b565b9150612bdd82612b42565b9150612be9828461289b565b91508190509392505050565b6000602082019050612c0a60008301846127fc565b92915050565b6000608082019050612c2560008301876127fc565b612c3260208301866127fc565b612c3f6040830185612b88565b8181036060830152612c518184612829565b905095945050505050565b6000602082019050612c71600083018461280b565b92915050565b6000602082019050612c8c600083018461281a565b92915050565b60006020820190508181036000830152612cac8184612862565b905092915050565b60006020820190508181036000830152612ccd816128cc565b9050919050565b60006020820190508181036000830152612ced816128ef565b9050919050565b60006020820190508181036000830152612d0d81612912565b9050919050565b60006020820190508181036000830152612d2d81612935565b9050919050565b60006020820190508181036000830152612d4d81612958565b9050919050565b60006020820190508181036000830152612d6d8161297b565b9050919050565b60006020820190508181036000830152612d8d8161299e565b9050919050565b60006020820190508181036000830152612dad816129c1565b9050919050565b60006020820190508181036000830152612dcd816129e4565b9050919050565b60006020820190508181036000830152612ded81612a07565b9050919050565b60006020820190508181036000830152612e0d81612a2a565b9050919050565b60006020820190508181036000830152612e2d81612a4d565b9050919050565b60006020820190508181036000830152612e4d81612a70565b9050919050565b60006020820190508181036000830152612e6d81612a93565b9050919050565b60006020820190508181036000830152612e8d81612ab6565b9050919050565b60006020820190508181036000830152612ead81612ad9565b9050919050565b60006020820190508181036000830152612ecd81612afc565b9050919050565b60006020820190508181036000830152612eed81612b65565b9050919050565b6000602082019050612f096000830184612b88565b92915050565b6000604082019050612f246000830185612b88565b612f3160208301846127fc565b9392505050565b6000612f42612f53565b9050612f4e8282613233565b919050565b6000604051905090565b600067ffffffffffffffff821115612f7857612f7761336b565b5b612f818261339a565b9050602081019050919050565b600067ffffffffffffffff821115612fa957612fa861336b565b5b612fb28261339a565b9050602081019050919050565b600081519050919050565b600081519050919050565b600082825260208201905092915050565b600082825260208201905092915050565b600081905092915050565b600061300d8261318b565b91506130188361318b565b9250827fffffffffffffffffffffffffffffffffffffffffffffffffffffffffffffffff0382111561304d5761304c6132de565b5b828201905092915050565b60006130638261318b565b915061306e8361318b565b92508261307e5761307d61330d565b5b828204905092915050565b60006130948261318b565b915061309f8361318b565b9250817fffffffffffffffffffffffffffffffffffffffffffffffffffffffffffffffff04831182151516156130d8576130d76132de565b5b828202905092915050565b60006130ee8261318b565b91506130f98361318b565b92508282101561310c5761310b6132de565b5b828203905092915050565b60006131228261316b565b9050919050565b60008115159050919050565b6000819050919050565b60007fffffffff0000000000000000000000000000000000000000000000000000000082169050919050565b600073ffffffffffffffffffffffffffffffffffffffff82169050919050565b6000819050919050565b82818337600083830152505050565b60005b838110156131c25780820151818401526020810190506131a7565b838111156131d1576000848401525b50505050565b60006131e28261318b565b915060008214156131f6576131f56132de565b5b600182039050919050565b6000600282049050600182168061321957607f821691505b6020821081141561322d5761322c61333c565b5b50919050565b61323c8261339a565b810181811067ffffffffffffffff8211171561325b5761325a61336b565b5b80604052505050565b600061326f8261318b565b91507fffffffffffffffffffffffffffffffffffffffffffffffffffffffffffffffff8214156132a2576132a16132de565b5b600182019050919050565b60006132b88261318b565b91506132c38361318b565b9250826132d3576132d261330d565b5b828206905092915050565b7f4e487b7100000000000000000000000000000000000000000000000000000000600052601160045260246000fd5b7f4e487b7100000000000000000000000000000000000000000000000000000000600052601260045260246000fd5b7f4e487b7100000000000000000000000000000000000000000000000000000000600052602260045260246000fd5b7f4e487b7100000000000000000000000000000000000000000000000000000000600052604160045260246000fd5b6000601f19601f8301169050919050565b7f537472696e67733a20686578206c656e67746820696e73756666696369656e74600082015250565b7f4552433732313a207472616e7366657220746f206e6f6e20455243373231526560008201527f63656976657220696d706c656d656e7465720000000000000000000000000000602082015250565b7f4552433732313a207472616e736665722066726f6d20696e636f72726563742060008201527f6f776e6572000000000000000000000000000000000000000000000000000000602082015250565b7f4552433732313a20746f6b656e20616c7265616479206d696e74656400000000600082015250565b7f4552433732313a207472616e7366657220746f20746865207a65726f2061646460008201527f7265737300000000000000000000000000000000000000000000000000000000602082015250565b7f4552433732313a20617070726f766520746f2063616c6c657200000000000000600082015250565b7f4552433732313a206f70657261746f7220717565727920666f72206e6f6e657860008201527f697374656e7420746f6b656e0000000000000000000000000000000000000000602082015250565b7f4552433732313a20617070726f76652063616c6c6572206973206e6f74206f7760008201527f6e6572206e6f7220617070726f76656420666f7220616c6c0000000000000000602082015250565b7f4552433732313a2062616c616e636520717565727920666f7220746865207a6560008201527f726f206164647265737300000000000000000000000000000000000000000000602082015250565b7f4552433732313a206f776e657220717565727920666f72206e6f6e657869737460008201527f656e7420746f6b656e0000000000000000000000000000000000000000000000602082015250565b7f45524337323155524953746f726167653a2055524920736574206f66206e6f6e60008201527f6578697374656e7420746f6b656e000000000000000000000000000000000000602082015250565b7f4552433732313a206d696e7420746f20746865207a65726f2061646472657373600082015250565b7f45524337323155524953746f726167653a2055524920717565727920666f722060008201527f6e6f6e6578697374656e7420746f6b656e000000000000000000000000000000602082015250565b7f4552433732313a20617070726f76656420717565727920666f72206e6f6e657860008201527f697374656e7420746f6b656e0000000000000000000000000000000000000000602082015250565b7f4552433732314d657461646174613a2055524920717565727920666f72206e6f60008201527f6e6578697374656e7420746f6b656e0000000000000000000000000000000000602082015250565b7f4552433732313a20617070726f76616c20746f2063757272656e74206f776e6560008201527f7200000000000000000000000000000000000000000000000000000000000000602082015250565b7f4552433732313a207472616e736665722063616c6c6572206973206e6f74206f60008201527f776e6572206e6f7220617070726f766564000000000000000000000000000000602082015250565b7f416363657373436f6e74726f6c3a206163636f756e7420000000000000000000600082015250565b7f206973206d697373696e6720726f6c6520000000000000000000000000000000600082015250565b7f416363657373436f6e74726f6c3a2063616e206f6e6c792072656e6f756e636560008201527f20726f6c657320666f722073656c660000000000000000000000000000000000602082015250565b6138fc81613117565b811461390757600080fd5b50565b61391381613129565b811461391e57600080fd5b50565b61392a81613135565b811461393557600080fd5b50565b6139418161313f565b811461394c57600080fd5b50565b6139588161318b565b811461396357600080fd5b5056fea26469706673582212204ba42bb87d356bd52b50f06f77ec26564cc432a0f7d6391eb166c0d52f4b438364736f6c63430008020033",
  "immutableReferences": {},
  "source": "// SPDX-License-Identifier: MIT\r\npragma solidity ^0.8.2;\r\n\r\nimport \"@openzeppelin/contracts/token/ERC721/ERC721.sol\";\r\nimport \"@openzeppelin/contracts/token/ERC721/extensions/ERC721URIStorage.sol\";\r\nimport \"@openzeppelin/contracts/access/AccessControl.sol\";\r\nimport \"@openzeppelin/contracts/utils/Counters.sol\";\r\n\r\ncontract CryptoStackRewardNFT is ERC721, ERC721URIStorage, AccessControl {\r\n    using Counters for Counters.Counter;\r\n\r\n    bytes32 public constant MINTER_ROLE = keccak256(\"MINTER_ROLE\");\r\n    Counters.Counter private _tokenIdCounter;\r\n\r\n    struct NFT {\r\n        uint tokenID;\r\n        address owner;\r\n    }\r\n\r\n    NFT[] public nfts;\r\n\r\n    constructor() ERC721(\"CryptoStackRewardNFT\", \"CSR\") {\r\n        _setupRole(DEFAULT_ADMIN_ROLE, msg.sender);\r\n        _setupRole(MINTER_ROLE, msg.sender);\r\n    }\r\n\r\n    function returnNFTCount() public view returns(uint) {\r\n        return nfts.length;\r\n    }\r\n\r\n    function safeMint(address to, string memory uri) public onlyRole(MINTER_ROLE) {\r\n        uint256 tokenId = _tokenIdCounter.current();\r\n        _tokenIdCounter.increment();\r\n        _safeMint(to, tokenId);\r\n        _setTokenURI(tokenId, uri);\r\n        nfts.push(NFT(tokenId, to));\r\n    }\r\n\r\n    function _burn(uint256 tokenId) internal override(ERC721, ERC721URIStorage) {\r\n        super._burn(tokenId);\r\n    }\r\n\r\n    function tokenURI(uint256 tokenId)\r\n        public\r\n        view\r\n        override(ERC721, ERC721URIStorage)\r\n        returns (string memory)\r\n    {\r\n        return super.tokenURI(tokenId);\r\n    }\r\n\r\n    function supportsInterface(bytes4 interfaceId)\r\n        public\r\n        view\r\n        override(ERC721, AccessControl)\r\n        returns (bool)\r\n    {\r\n        return super.supportsInterface(interfaceId);\r\n    }\r\n}",
  "sourcePath": "D:/Hackathons/Devfolio online/ByteSynergy/project/CryptoStack/truffle/contracts/CryptoStackRewardNFT.sol",
  "compiler": {
    "name": "solc",
    "version": "0.8.2+commit.661d1103.Emscripten.clang"
  },
  "schemaVersion": "3.4.1",
  "updatedAt": "2022-02-12T17:37:05.337Z",
  "networkType": "ethereum",
  "devdoc": {
    "kind": "dev",
    "methods": {
      "approve(address,uint256)": {
        "details": "See {IERC721-approve}."
      },
      "balanceOf(address)": {
        "details": "See {IERC721-balanceOf}."
      },
      "getApproved(uint256)": {
        "details": "See {IERC721-getApproved}."
      },
      "getRoleAdmin(bytes32)": {
        "details": "Returns the admin role that controls `role`. See {grantRole} and {revokeRole}. To change a role's admin, use {_setRoleAdmin}."
      },
      "grantRole(bytes32,address)": {
        "details": "Grants `role` to `account`. If `account` had not been already granted `role`, emits a {RoleGranted} event. Requirements: - the caller must have ``role``'s admin role."
      },
      "hasRole(bytes32,address)": {
        "details": "Returns `true` if `account` has been granted `role`."
      },
      "isApprovedForAll(address,address)": {
        "details": "See {IERC721-isApprovedForAll}."
      },
      "name()": {
        "details": "See {IERC721Metadata-name}."
      },
      "ownerOf(uint256)": {
        "details": "See {IERC721-ownerOf}."
      },
      "renounceRole(bytes32,address)": {
        "details": "Revokes `role` from the calling account. Roles are often managed via {grantRole} and {revokeRole}: this function's purpose is to provide a mechanism for accounts to lose their privileges if they are compromised (such as when a trusted device is misplaced). If the calling account had been revoked `role`, emits a {RoleRevoked} event. Requirements: - the caller must be `account`."
      },
      "revokeRole(bytes32,address)": {
        "details": "Revokes `role` from `account`. If `account` had been granted `role`, emits a {RoleRevoked} event. Requirements: - the caller must have ``role``'s admin role."
      },
      "safeTransferFrom(address,address,uint256)": {
        "details": "See {IERC721-safeTransferFrom}."
      },
      "safeTransferFrom(address,address,uint256,bytes)": {
        "details": "See {IERC721-safeTransferFrom}."
      },
      "setApprovalForAll(address,bool)": {
        "details": "See {IERC721-setApprovalForAll}."
      },
      "symbol()": {
        "details": "See {IERC721Metadata-symbol}."
      },
      "transferFrom(address,address,uint256)": {
        "details": "See {IERC721-transferFrom}."
      }
    },
    "version": 1
  },
  "userdoc": {
    "kind": "user",
    "methods": {},
    "version": 1
  }
}